:400000000040002011000000ED030000ED03000080B500AF00F0F4F980B500AF2D4B12221A6000F0B1FB2C4B180000F049FE012000F0BAFB302000F067FA284B284A1A607C
:40004000284B8022D2051A60274B274A126802210A431A60254B264A1A60264B00221A60254B254A126808218A431A60FA23DB00180000F097FA214B180000F025FB204B13
:40008000204A1A60204B214A1A60214BD02252021A601D4B1F4A1A601F4B802212061A601E4B8022D2021A601D4B41221A601D4B40221A601C4B1900082000F0BDFA08209E
:4000C00000F0E0FA074B8022D2051A60C046BD4680BDC04630001040001BB70004010B40060000800C020B4078002E407C002E406969000064F02E406CF02E40DC05000015
:4001000004030140007FBB000000014041FF00800003014040FF008008010B4000010B402C01014004010140FD08000080B582B000AF72B6384B00221A60FB1D00221A70BF
:4001400022E0FB1D1A7813005B009B185B00334A9B183B603B681A78597809020A43997809040A43DB781B06134318003B681A795B791B0213439BB2190000F0D1F8FB1D2D
:400180001A78FB1D01321A70FB1D1B78012BD8D9234A244B1100180000F0D2F8224B234A1A60234BC02292021A60224B992212041A60214B992212041A60204B802252040D
:4001C0001A601F4A1E4B1B78DBB23C218B43DBB214210B43DBB213701A4A1A4B1B78DBB216210B43DBB21370174B20221A60174B174A1A60174B20221A60174B50221A6003
:40020000164B832252031A60FFF706FF00F0DAF8C046BD4602B080BD6CF02E404C0D00006C0D0000580D000000000240000099EE0001024000500F4010500F4018500F4022
:4002400001700F4000700F4000000440080004400010DB0018000440000104400801044010B5064C2378002B07D1054B002B02D0044800E000BF0123237010BD300C0020C9
:4002800000000000480D0000084B10B5002B03D00749084800E000BF07480368002B00D110BD064B002BFBD09847F9E700000000340C0020480D0000A80B00200000000083
:4002C00080B500AF62B600F0A9FB054B180000F095FC044B00221A80034B19221A70FEE7ED020000820C0020800C002080B582B000AF00F0D9FC00F061FC0200FB1D1A706D
:40030000FB1D1B78180000F0C9FB044B04221A6000F0BEFCC046BD4602B080BDC00F244080B582B000AF786039603A687B680021180000F001FDC046BD4602B080BDC04651
:4003400080B586B000AF7860396000233B6100237B612FE07B699B007A68D3181B68BB600F23FB18BA681A70BB68FF229343BB6018E03B695B003A68D3181B781A00BB68C1
:40038000D31819003B695B003A68D3185B780B703B6901333B610F23FB181A780F23FB18013A1A700F23FB181B78002BE1D17B6901337B617B69042BCCD9C046BD4606B0EA
:4003C00080BDC04680B500AF054B03221A60054B03221A60044B00221A60C046BD4680BD3000304030003140000E3F4080B500AF00F076FC03001B680C2B00D1FEE7FEE75B
:4004000080B586B000AF224B7B61224B3B61204B7B6135E03B691B68FB603B695B68BB603B699B683B6000237B600CE0FB681A68BB681A60BB680433BB60FB680433FB60D8
:400440007B6804337B607A683B689A42EED13B69DB683B6000237B6008E0BB6800221A60BB680433BB607B6804337B607A683B689A42F2D13B6910333B617B69013B7B6133
:400480007B69002BC6D100F031FCFFF719FFFEE701000000500E000080B582B000AF154B144A126801218A431A6000237B600FE07B68032B04D8104B7A689200D35800E0BC
:4004C0000E4B0F4A796889008B507B6801337B607B682F2BECD9FFF729FE0A4B00221A60044B044A126801210A431A60C046BD4602B080BD0000104000000000ED030000CB
:4005000000000020C000002090B58BB000AF78602723FC1800F0DDFB03002370194B1A680C23FB181A60184B1A680C23FB185A607B68033B154AD35C1A000C23FB189A6070
:40054000134B1A680C23FB18DA601C23FB18114A1A600C23FA181C23FB185A600E4B1C22BA181A600D4B0E4A1A600B4B1B682723FB181B78180000F0B0FBC046BD460BB05E
:4005800090BDC04608010B4000010B40FC0D000030001040B6EA000008001040040010401700008080B584B000AF78600023FB60154B154A126801210A431A60134B144A90
:4005C0001A60144B134A1268802109020A431A607B68002B12D01023FB600CE0012000F073F800F019F8031E02D00023FB6005E07B68013B7B607B68002BEFD1FB68180058
:40060000BD4604B080BDC04660F02E4078002E400220000010002E4080B582B000AF054B1B68012213407B607B681800BD4602B080BDC0460C002E4080B584B000AF0200BB
:400640003960FB1D1A7080239B05FB60FB1D1B781F2B02D9002000F02BF8FB1D1B7810339B00FA68D3181B68BB60FB1D1B7810339B00FA68D3183A681A60BB681800BD46FA
:4006800004B080BD80B582B000AF0200FB1D1A70064BFA1D12781F210A40012191400A001A60C046BD4602B080BDC04600E100E080B582B000AF0200FB1D1A7001BEC0465E
:4006C000BD4602B080BDC04680B582B000AF0200BB1D1A80BB1D1B88044A12785343180000F0EEFAC046BD4602B080BDB40B002080B500AF0F4B0F4A126801218A431A604E
:400700000C4B0C4A126802218A431A600A4B0A4A126830218A4310210A431A60064B064A126807218A4301210A431A60C046BD4680BDC04600F02E4000FF2E4080B500AFFB
:400740000F4B0F4A126802218A431A600D4B0D4A126807218A4302210A431A60094B094A126830218A4320210A431A60044B044A126801210A431A60C046BD4680BDC04647
:4007800000F02E4000FF2E4080B500AFFFF7B0FF044B044A1268802109060A431A60C046BD4680BD00F02E4080B584B000AF78600C4B1B6801221340FB607B68002B02D038
:4007C000012B03D005E0FFF793FF06E0FFF7B6FF03E00020FFF76CFFC046FB681800BD4604B080BD00F02E4090B583B000AFFC1D00F06FFA03002370074B074A1268C02198
:4008000009020A431A60FB1D1B78180000F065FAC046BD4603B090BD00010B4080B500AF054B1A68C0231B02134001D0012300E000231800BD4680BD00010B4090B583B062
:4008400000AFFC1D00F045FA030023700D4B0D4A12680D490A408021C9010A431A60094B084A126808490A40802109020A431A60FB1D1B78180000F030FAC046BD4603B029
:4008800090BDC04600010B40FF3FFFFF90B585B000AF78600B23FC1800F01BFA03002370FFF7BCFF031E04D00123FB60FFF7C6FF01E00023FB607B680D4A13407B600D4B80
:4008C0000C4A12680C4911407A680A431A60094B1B68FB68012B01D1FFF786FF0B23FB181B78180000F0F9F9C046BD4605B090BD0404040010020B40FBFBFBFF80B500AF10
:40090000344B1B68042213401FD0334B1B680422134017D0314B1B6804221340DA432E4B1B681A402C4B1A602C4B1B68042293431A002A4B1A602A4B1B68002B02D0284BA9
:400940001B6898470420FFF7A1FF224B1A688023DB00134022D0204B1A688023DB00134017D01E4B1A688023DB001340DA431A4B1B681A40184B1A60184B1B68194A1A4069
:40098000164B1A60164B5B68002B02D0144B5B6898478023DB001800FFF778FF0D4B1A688023DB02134011D00B4B1A688023DB02134006D00A4B9B68002B02D0084B9B687D
:4009C00098478023DB021800FFF760FFC046BD4680BDC04610020B40C40B0020540C0020580C0020FFFBFFFF80B500AF00F06CF8C046BD4680BDC04680B500AF064B064A8E
:400A00001268802109060A431A6000F019F800F01DF8C046BD4680BD0000244080B500AF064B1B78002B04D1FFF7DEFF034B01221A70FFF7E1FFC046BD4680BD740C0020C3
:400A400080B500AFC046BD4680BDC04680B500AF00F09AF8C046BD4680BDC04680B582B000AF00237B60044B1B687B607B681800BD4602B080BDC0464003244080B582B0D2
:400A800000AF054B1B681F2213407B607B681800BD4602B080BDC0460803244080B582B000AF7860C046064B1B681F221340082BF9D0044B7A681A60C046BD4602B080BDE8
:400AC000080224404002244080B500AF1B4B1C4A1A601C4B00221A601B4B01221A601B4B1B4A1A601B4B07221A601B4B00221A601A4B01221A601A4B154A1A60194B00229C
:400B00001A60194B04221A60184B00221A60184B00221A60174B00221A60174B00221A60164B04221A60164B00221A60144B1B689AB2144B1A80C046BD4680BD000024406E
:400B40000B00000240002440480024400003244007000080040324401003244044002440000224400402244050002440880E2440C80E2440480F2440080F2440C80F244077
:400B8000880F2440760C002080B500AF074B074A126807490A40902109040A431A60054B054A12881A60C046BD4680BD00000240FFFF0FFF880F2440760C002080B582B02D
:400BC00000AF00237B60FFF759FF031E03D0FFF745FF03007B60084B1A68D8239B00134005D000237B60044BD82292001A607B681800BD4602B080BDC00F244080B582B081
:400C000000AF786000F050F87B68180000F00AF8032000F015F800F03BF8C046BD4602B080BDC04680B582B000AF7860034B7A685A66C046BD4602B080BDC04600000020CB
:400C400090B585B000AF0200FB1D1A700E23FB600B23FC1800F03DF8030023700A4B0A4A12680A491140FA1D1078FA68904002000A431A600B23FB181B78180000F02DF8BC
:400C8000C046BD4605B090BD08E400E0FF3FFFFF80B500AF034B802292001A60C046BD4680BDC04600E100E080B500AF034B802292001A60C046BD4680BDC04680E100E0C7
:400CC0000230800803D00138FDD1C046C046C0467047EFF3108072B6704780F310887047014B18687047C046280C00200E4B70B500251E000D4CE41AA410A54204D0AB0075
:400D0000F35898470135F8E700F090F8084B00251E00084CE41AA410A54204D0AB00F35898470135F8E770BD380E0000380E0000380E0000400E000003008218934202D02A
:400D400019700133FAE770470000000000300F40000400400F40000401000F4027320F4019330F4004410F4002600F40820D0A010F0114041A0727012E083004320234084B
:400D8000350136013F104020410545D14602480749FF4AFF4BFF4DA04F04501852805405580459045A045B045F01604062C06440654066C068C06AC06CC06EC005100E2080
:400DC0000F0817801D301E601FA027082F203F8045204F8957405E405F0977808380C040C260C480CA40CE10D020D210D6D067028301D680E6200101100100000304050676
:400E00000708090A0B0C0E0F101112131415161718191B1C1D1E1F2021222325262728292A2B2E2F3031323334354300F8B5C046F8BC08BC9E4670478902000099040000A3
:400E4000F8B5C046F8BC08BC9E46704761020000600E0000A80B0020880000005800000000000000006CDC0280BB0000300000000000C05D01000000F00000000404040059
:400E800000000000000000000000000000000000000000000000000000000000000000002A0E000000000000000000000000000000000000000000000000000000000000FA
:400EC0000000000000000000000000000000000000000000000000000000000000000000C80B002000000000000000000000000000000000000000000000000000000000FF
:400F000000000000000000000000000000000000000000000000000000000000000000000000000000000000000000000000000000000000000000000000000000000000B1
:400F40000000000000000000000000000000000000000000000000000000000000000000000000000000000000000000000000000000000000000000000000000000000071
:400F80000000000000000000000000000000000000000000000000000000000000000000000000000000000000000000000000000000000000000000000000000000000031
:400FC00000000000000000000000000000000000000000000000000000000000000000000000000000000000000000000000000000000000000000000000000000000000F1
:020000040001F9
:0200000490303A
:02000000A7AAAD
:0200000490402A
:4000000000000000000000000000000000000000000000000000000000000000000000000000000000000000000000000000000000000000000000000000000000000000C0
:400040000000000000000000000000000000000000000000000000000000000000000000000000000000000000000000000000000000000000000000000000000000000080
:0200000490501A
:0C00000000020E50119E00010E54B94881
:0200000490600A
:0100000001FE
:00000001FF