:400000000040002011000000750500007505000080B500AF00F0B8FA80B500AF2D4B12221A6000F09BFC2C4B180001F02DFC012000F0A4FC302000F02BFB284B284A1A6025
:40004000284B8022D2051A60274B274A126802210A431A60254B264A1A60264B00221A60254B254A126808218A431A60FA23DB00180000F05BFB214B180000F00FFC204B63
:40008000204A1A60204B214A1A60214BD02252021A601D4B1F4A1A601F4B802212061A601E4B8022D2021A601D4B41221A601D4B40221A601C4B1900082000F081FB0820D9
:4000C00000F0A4FB074B8022D2051A60C046BD4680BDC04630001040001BB70004010B40060000800C020B4078002E407C002E406969000064F02E406CF02E40DC05000050
:4001000004030140007FBB000000014041FF00800003014040FF008008010B4000010B402C01014004010140D10A000080B582B000AF72B6384B00221A60FB1D00221A70E9
:4001400022E0FB1D1A7813005B009B185B00334A9B183B603B681A78597809020A43997809040A43DB781B06134318003B681A795B791B0213439BB2190000F095F9FB1D68
:400180001A78FB1D01321A70FB1D1B78012BD8D9234A244B1100180000F096F9224B234A1A60234BC02292021A60224B992212041A60214B992212041A60204B8022520448
:4001C0001A601F4A1E4B1B78DBB23C218B43DBB214210B43DBB213701A4A1A4B1B78DBB216210B43DBB21370174B20221A60174B174A1A60174B20221A60174B50221A6003
:40020000164B832252031A60FFF706FF00F09EF9C046BD4602B080BD6CF02E4060390100803901006C39010000000240000099EE0001024000500F4010500F4018500F409A
:4002400001700F4000700F4000000440080004400010DB0018000440000104400801044010B5064C2378002B07D1054B002B02D0044800E000BF0123237010BD681000208D
:40028000000000005C390100084B10B5002B03D00749084800E000BF07480368002B00D110BD064B002BFBD09847F9E7000000006C1000205C390100A80B002000000000C5
:4002C00080B500AF01F0D4FA00F062FD0300DAB2074B1A70074B1B78180000F0C9FC064B04221A6001F0B8FAC046BD4680BDC046CD210020CC210020C00F244080B500AFDD
:4003000062B600F075FC0B4B180001F05BFA0A4B180000F07BFD094B00221A70084B00221A7000F00FF801F0E9FE032001F0DEFEF7E7C046C1020000C9030000CD2100207C
:40034000CC21002080B584B000AF1A4B1B789AB2194B1A803B1D12221A813B1D154A1A603B1D01229A80154A381D002300210EF0B9FB134B1B68002B14D00F4B1A88114B37
:400380001B889A420ED0391D0C4B1A785B781B021A4300231204120C1B0C1B04134318000DF036FD044B1A88064B1A80C046BD4604B080BDCD210020C4210020E02100200F
:4003C000C8210020CE21002080B584B000AF786039607B68282B0ED002D8012B05D059E0412B0ED04C2B11D054E0002000F0A2FD01F010F94EE0002000F09CFD01F00AF9EA
:4004000048E0FFF79FFF01F069F943E03B68FB60FB689B89142B1CD1FB68181D1F4A402300210EF05FFBFB685B681B781A0001231A401B4B1A60194B1A785B781B021A4388
:4004400000231204120C1B0C1B04134318000DF035FDFB689B89162B1BD1FB68181D0F4A402300210EF03EFB031E12D1FB685B681A780C4B1A70094B1A785B781B021A4312
:4004800000231204120C1B0C1B04134318000DF015FDC046C046BD4604B080BDE0210020C8210020CC21002080B582B000AF786039603A687B680021180001F0DFFDC046D3
:4004C000BD4602B080BDC04680B586B000AF7860396000233B6100237B612FE07B699B007A68D3181B68BB600F23FB18BA681A70BB68FF229343BB6018E03B695B003A6803
:40050000D3181B781A00BB68D31819003B695B003A68D3185B780B703B6901333B610F23FB181A780F23FB18013A1A700F23FB181B78002BE1D17B6901337B617B69042B11
:40054000CCD9C046BD4606B080BDC04680B500AF054B03221A60054B03221A60044B00221A60C046BD4680BD3000304030003140000E3F4080B500AF01F03CFD03001B687F
:400580000C2B00D1FEE7FEE780B586B000AF224B7B61224B3B61204B7B6135E03B691B68FB603B695B68BB603B699B683B6000237B600CE0FB681A68BB681A60BB68043395
:4005C000BB60FB680433FB607B6804337B607A683B689A42EED13B69DB683B6000237B6008E0BB6800221A60BB680433BB607B6804337B607A683B689A42F2D13B6910333A
:400600003B617B69013B7B617B69002BC6D101F0F7FCFFF773FEFEE701000000543E010080B582B000AF154B144A126801218A431A6000237B600FE07B68032B04D8104BCC
:400640007A689200D35800E00E4B0F4A796889008B507B6801337B607B682F2BECD9FFF765FD0A4B00221A60044B044A126801210A431A60C046BD4602B080BD000010407F
:40068000000000007505000000000020C000002090B58BB000AF78602723FC1801F0FDF803002370194B1A680C23FB181A60184B1A680C23FB185A607B68033B154AD35CAD
:4006C0001A000C23FB189A60134B1A680C23FB18DA601C23FB18114A1A600C23FA181C23FB185A600E4B1C22BA181A600D4B0E4A1A600B4B1B682723FB181B78180001F0F5
:40070000D0F8C046BD460BB090BDC04608010B4000010B40103A010030001040B6EA000008001040040010401700008080B584B000AF78600023FB60154B154A12680121C3
:400740000A431A60134B144A1A60144B134A1268802109020A431A607B68002B12D01023FB600CE0012000F099F800F019F8031E02D00023FB6005E07B68013B7B607B6893
:40078000002BEFD1FB681800BD4604B080BDC04660F02E4078002E400220000010002E4080B582B000AF054B1B68012213407B607B681800BD4602B080BDC0460C002E40EE
:4007C00080B584B000AF02003960FB1D1A7080239B05FB60FB1D1B781F2B02D9002000F02BF8FB1D1B7810339B00FA68D3181B68BB60FB1D1B7810339B00FA68D3183A6817
:400800001A60BB681800BD4604B080BD80B582B000AF0200FB1D1A70064BFA1D12781F210A40012191400A001A60C046BD4602B080BDC04600E100E080B582B000AF02008B
:40084000FB1D1A7001BEC046BD4602B080BDC04680B582B000AF786009E00D4B1B68180001F012F87B680B4A944663447B607A6880231B029A42F0D8074B1B687A6853432D
:40088000180001F001F8C046BD4602B080BDC046B80B00200080FFFFB00B002080B582B000AF0200BB1D1A80BB1D1B88044A12785343180000F0E8FFC046BD4602B080BDA2
:4008C000B40B002080B500AF0F4B0F4A126801218A431A600C4B0C4A126802218A431A600A4B0A4A126830218A4310210A431A60064B064A126807218A4301210A431A60DC
:40090000C046BD4680BDC04600F02E4000FF2E4080B500AF0F4B0F4A126802218A431A600D4B0D4A126807218A4302210A431A60094B094A126830218A4320210A431A60D6
:40094000044B044A126801210A431A60C046BD4680BDC04600F02E4000FF2E4080B500AFFFF7B0FF044B044A1268802109060A431A60C046BD4680BD00F02E4080B584B03C
:4009800000AF78600C4B1B6801221340FB607B68002B02D0012B03D005E0FFF793FF06E0FFF7B6FF03E00020FFF746FFC046FB681800BD4604B080BD00F02E4090B583B09F
:4009C00000AFFC1D00F069FF03002370074B074A1268C02109020A431A60FB1D1B78180000F05FFFC046BD4603B090BD00010B4080B500AF054B1A68C0231B02134001D031
:400A0000012300E000231800BD4680BD00010B4090B583B000AFFC1D00F03FFF030023700D4B0D4A12680D490A408021C9010A431A60094B084A126808490A408021090285
:400A40000A431A60FB1D1B78180000F02AFFC046BD4603B090BDC04600010B40FF3FFFFF90B585B000AF78600B23FC1800F015FF03002370FFF7BCFF031E04D00123FB603A
:400A8000FFF7C6FF01E00023FB607B680D4A13407B600D4B0C4A12680C4911407A680A431A60094B1B68FB68012B01D1FFF786FF0B23FB181B78180000F0F3FEC046BD46B4
:400AC00005B090BD0404040010020B40FBFBFBFF80B500AF344B1B68042213401FD0334B1B680422134017D0314B1B6804221340DA432E4B1B681A402C4B1A602C4B1B6816
:400B0000042293431A002A4B1A602A4B1B68002B02D0284B1B6898470420FFF7A1FF224B1A688023DB00134022D0204B1A688023DB00134017D01E4B1A688023DB00134019
:400B4000DA431A4B1B681A40184B1A60184B1B68194A1A40164B1A60164B5B68002B02D0144B5B6898478023DB001800FFF778FF0D4B1A688023DB02134011D00B4B1A6830
:400B80008023DB02134006D00A4B9B68002B02D0084B9B6898478023DB021800FFF760FFC046BD4680BDC04610020B40C40B00208C10002090100020FFFBFFFF80B500AF25
:400BC00000F06CF8C046BD4680BDC04680B500AF064B064A1268802109060A431A6000F019F800F01DF8C046BD4680BD0000244080B500AF064B1B78002B04D1FFF7DEFF94
:400C0000034B01221A70FFF7E1FFC046BD4680BDAC10002080B500AFC046BD4680BDC04680B500AF00F09AF8C046BD4680BDC04680B582B000AF00237B60044B1B687B601E
:400C40007B681800BD4602B080BDC0464003244080B582B000AF054B1B681F2213407B607B681800BD4602B080BDC0460803244080B582B000AF7860C046064B1B681F2217
:400C80001340082BF9D0044B7A681A60C046BD4602B080BD080224404002244080B500AF1B4B1C4A1A601C4B00221A601B4B01221A601B4B1B4A1A601B4B07221A601B4B4A
:400CC00000221A601A4B01221A601A4B154A1A60194B00221A60194B04221A60184B00221A60184B00221A60174B00221A60174B00221A60164B04221A60164B00221A601C
:400D0000144B1B689AB2144B1A80C046BD4680BD000024400B0000024000244048002440000324400700008004032440100324404400244000022440040224405000244089
:400D4000880E2440C80E2440480F2440080F2440C80F2440880F2440AE10002080B500AF074B074A126807490A40902109040A431A60054B054A12881A60C046BD4680BDDC
:400D800000000240FFFF0FFF880F2440AE10002080B582B000AF00237B60FFF759FF031E03D0FFF745FF03007B60084B1A68D8239B00134005D000237B60044BD822920032
:400DC0001A607B681800BD4602B080BDC00F244080B500AF064B00221A70064B00221A70054B00221A7000F009F8C046BD4680BDE3210020DC210020E221002080B500AF00
:400E000000F002FCC046BD4680BDC046B0B594B004AF78603E23FB1800221A802823FA183D4B1000190014231A0001F01EF93B4B1B78002B04D1FFF7CBFF384B01221A70A4
:400E40007B68002B5CD0364B7A681A603E23FB181B88002B29D11023FB181C22BA185A601023FB182022BA181A601023FB1800221A812023FB181B221A802023FB181B2278
:400E80005A802023FB1804221A711C23FB1800221A703E23FC180E23FA181023FB181100180001F007FA030023803E23FB181B88002B29D13E23FC182823FD18AE231A0197
:400EC000184919480023029300230193052300932B0001F045F9030023803E23FB181B88002B11D1114B01221A703E23FC18104B0A22172118000DF0DDFD0300238003E02D
:400F00003E23FB1801221A803E23FB181B881800BD4610B0B0BDC046403A0100B0100020D0210020C80000206D120000D82100208C3A010090B585B000AF0200FB1D1A709B
:400F4000FB1D1B78022B04D90E23FB1801221A804AE0294B1B78042B41D1284B1B78DBB21A00042313403AD1FB1D1B78002B0BD1234B1E221A82224B5B6820221A80204BA4
:400F80005B6830225A8010E0FB1D1B78012B0CD11B4B96221A821A4B5B68C822D2001A80174B5B688022D2015A80164BFA1D12781A700E23FC18124B18000BF09FFD030012
:400FC00023800E23FB181B88002B0DD10B4B1B78DBB204221343DAB2084B1A7004E00E23FB180422FF321A800E23FB181B881800BD4605B090BDC046D8210020E3210020A3
:40100000F80B0020E221002080B584B000AF78600A00FB1C1A700023BB60BB68002B20D07B689A79BB681A700F23FB1800221A7012E00F23FB181B780133BA68D3180F2283
:40104000BA18127879688A5C1A700F23FB181A780F23FB1801321A700F23FB181B78052BE7D9C046BD4604B080BDC04680B582B000AF78607B681B789AB27B6801331B78C8
:401080009BB21B029BB213439BB21800BD4602B080BDC04690B585B000AF78600F23FB1800221A707B689B890F22934232D17B68181D7A680F23FC18402300210DF012FDF4
:4010C000030023700F23FB181B78002B1AD17B685B681800FFF7CAFF03001A00022313409BB2002B07D00F4B1B687968822252001000984706E00B4B1B6879680622FF326F
:4011000010009847084B1B78DBB201229343DAB2054B1A700F23FB181B781800BD4605B090BDC046D0210020E321002090B585B000AF78600F23FC187B681800FFF7AAFFDD
:4011400003002370154B1B78DBB21A00012313401FD10F23FB181B78002B16D00823FB1812229A707B689A890823FB181A800823FB180F22BA181278DA700823FA187B6860
:40118000110018680CF006FE03E07B6818680CF095FEC046BD4605B090BDC046E321002080B582B000AF7860C046BD4602B080BD80B500AF044B00225A70034B00221A7095
:4011C000C046BD4680BDC046E021002080B582B000AF7860C046BD4602B080BD80B500AFC046BD4680BDC04680B584B000AF78600E23FB1800221A707B689B79002B1CD17D
:401200000F23FB1800221A7012E00F23FB181B787A68D35C002B04D00E23FB1801221A700BE00F23FB181A780F23FB1801321A700F23FB181B78052BE7D90E23FB181B788F
:401240001800BD4604B080BD80B582B000AF0200BB1D1A80C046BD4602B080BD80B582B000AF7860C046BD4602B080BD80B588B000AF02003960FB1D1A70D34B1B78DBB263
:4012800001221343DAB2D04B1A70FB1D1B78712B00D977E19A00CD4BD3181B689F461023FB1807221A701023FB1800225A701023FB18180002F06EFF1023FB1807221A7026
:4012C0001023FB1801225A701023FB18180002F061FF0B23002B01D000F004FFBC4B1B681800FFF781FF031E11D0B94B1B68180000F008FFB64B1B6800211800FFF784FE09
:40130000B34B1B6801211800FFF77EFE36E0B14B1B781A003F231A40AF4B1B789901FC231B010B401A43AD4B1B781903F8235B020B401A43AA4B1B785904FE231B040B40C4
:401340001343BB61BB69DAB2A64B1A70BB691B0ADAB2A44B5A70BB691B0CDAB2A14B9A70A04B180000F0CEFE9E4B00211800FFF74BFE9C4B01211800FFF746FE03200BF0DC
:4013800051FA0C23FB183F221A700C23FB1800225A700C23FB1818000BF062FA924B04221A70F6E03B681800FFF710FFF1E03B681A788E4B1A70ECE03B687B617B691B7888
:4013C000002B00D0E0E07B695B78002B0BD1884B0022DA80864B00229A80854B854A1A607B69834A5A60784B1B78DBB201229343DAB2754B1A70C7E0734B1B78DBB21A0043
:401400002023134000D0C1E07B4B1B78102B02D1794B0522DA70794B1B78774A110018000BF02AFB03001A000A23FB181A800A23FB181B88002B06D0714B1B680A22BA1890
:40144000110036209847604B1B78DBB201221343DAB25D4B1A7099E03B681800FFF7FEFE97E03B681800FFF7F9FE5F4B02221A708FE05D4B04221A708BE05B4B1B78022BEF
:4014800000D185E0504B1B78DBB21A000123134000D17DE04C4B1B78DBB21A00042313400BD0514B03221A70474B1B78DBB204229343DAB2444B1A706AE0434B1B78DBB2C0
:4014C0001A00082313400BD0474B04221A703E4B1B78DBB208229343DAB23B4B1A7057E0414B1B78032B53D13F4B04221A70454B1B78002B4CD10120FFF71CFD031E47D13C
:40150000394B03221A7043E03B681B881800FFF79BFE3EE0394A3B681000190002231A0000F0A3FD314B00221A70FFF757FE30E0FFF73EFE2DE03B685B88162B05D81E2385
:40154000FB183A6852881A8003E01E23FB1817221A801E23FB1819883B681A8800231204120C1B0C1B04134318000CF01DFC10E03B681800FFF7DAFD0BE03B681800FFF7CA
:401580000FFE06E0C04604E0C04602E0C04600E0C0460D4B1B78DBB21A00112313400ED0094B1B78DBB201229343DAB2064B1A70134B1B68FA1D1278396810009847C04697
:4015C000BD4608B080BDC046E3210020643C0100140C00207CF1FF0F7DF1FF0F7BF1FF0F78F1FF0F0C0C0020D8210020DC210020D4100020A80B0020D80C0020E021002096
:40160000D0210020E221002080B500AFC046BD4680BDC04680B500AF064B1B78002B04D100F00AF8034B01221A7000F047F8C046BD4680BDDC10002090B583B000AF1D4B81
:401640001B78DAB2FB1D3F218A431A70194AFB1D1B7809210B43DBB21370174A164B1B78DBB201210B43DBB21370FF2000F046F8FF2000F063F87F2000F070F8002000F0C6
:401680007DF8BC1D00F009F9030023700A4A0A4B1B78DBB210210B43DBB21370BB1D1B78180000F0FEF800F039F8C046BD4603B090BDC04672000F4092000F4080B500AFDD
:4016C0000549054B1B78DBB2802252421343DBB20B70C046BD4680BD72000F4080B500AF054A054B1B78DBB27F210B40DBB21370C046BD4680BDC04672000F4080B582B07F
:4017000000AF0200FB1D1A70034AFB1D1B781370C046BD4602B080BD02000F4080B500AF01E000F045F800F039F803001A0010231340F6D1C046BD4680BDC04680B582B062
:4017400000AF0200FB1D1A70034AFB1D1B781370C046BD4602B080BD42000F4080B582B000AF0200FB1D1A70034AFB1D1B781370C046BD4602B080BD22000F4080B582B00D
:4017800000AF0200FB1D1A70034AFB1D1B781370C046BD4602B080BD82000F4080B500AF024B1B78DBB21800BD4680BD62000F4080B500AF024B1B78DBB21800BD4680BD8F
:4017C00052000F4080B582B000AF786000F050F87B68180000F00AF8032000F015F800F03BF8C046BD4602B080BDC04680B582B000AF7860034B7A685A66C046BD4602B05B
:4018000080BDC0460000002090B585B000AF0200FB1D1A700E23FB600B23FC1800F03DF8030023700A4B0A4A12680A491140FA1D1078FA68904002000A431A600B23FB184D
:401840001B78180000F02DF8C046BD4605B090BD08E400E0FF3FFFFF80B500AF034B802292001A60C046BD4680BDC04600E100E080B500AF034B802292001A60C046BD46BF
:4018800080BDC04680E100E00230800803D00138FDD1C046C046C0467047EFF3108072B6704780F31088704790B583B000AFFC1DFFF7F3FF03002370074B074A1268042134
:4018C0008A431A6030BFFB1D1B781800FFF7E9FFC046BD4603B090BD10ED00E080B582B000AF78600A00BB1C1A80BB1C1A887B681A60C046BD4602B080BDC04680B582B087
:4019000000AF78600A00BB1C1A80BB1C1A887B681A60C046BD4602B080BDC04680B584B000AF494B1B78DBB21B02484A1278D2B21343FB60464B1B78DBB21B02454A1278B0
:40194000D2B21343BB60BB68434A934207D1FB68072B04D1414BBB600423FB6009E0BA68D4231B019A4204D1FB68042B01D13B4BBB603B4BBA681A603A4BFA681A603A4BA6
:401980001B78DBB21B02394A1278D2B21343FB60FA6880239B019A4202D0FB68002B01D1334BFB60334BFA681A60334B1B78DBB21B02324A1278D2B21343FB60FB68304AF3
:4019C000934206D0FB682F4A934202D0FB68052B01D12D4BFB602D4BFA681A602C4B1B681B097B602B4B1B68AA2B29D17B68012B26D9214B1B78DBB20E2B21D1264B1B78A3
:401A0000DBB29BB21B0299B2244B1B78DBB29AB2BB1C0A431A80224BBA1C12881A60214B1B78DBB29BB21B0299B21F4B1B78DBB29AB23B000A431A801C4B3A0012881A6086
:401A4000C046BD4604B080BDD9F0FF0FD8F0FF0FDFF0FF0FDEF0FF0F580B0000580D00006C002E4074002E40DBF0FF0FDAF0FF0F0220000078002E40DDF0FF0FDCF0FF0F14
:401A80000F0F000005050000050F000080002E40EC0F00F0E00F00F06DF2FF0F6CF2FF0F84002E406FF2FF0F6EF2FF0F94002E4080B582B000AF0200BB1D1A80BB1D1B8883
:401AC0001800FEF7EBFEC046BD4602B080BDC04680B582B000AF78607B681800FEF7B8FEC046BD4602B080BD80B500AF00F0ECF8C046BD4680BDC04680B500AF00F0F0F8A6
:401B0000C046BD4680BDC04680B500AF00F0E8F8044B180000F0A2F8032000F0ADF8C046BD4680BDF91C000080B500AF034B180000F080F8C046BD4680BDC046F91C00008E
:401B400080B500AF0223FF331800BD4680BDC04680B582B000AF78602B231800BD4602B080BDC04680B582B000AF78602B231800BD4602B080BDC04680B582B000AF786046
:401B80002B231800BD4602B080BDC04680B582B000AF78602B231800BD4602B080BDC04680B582B000AF78602B231800BD4602B080BDC04680B582B000AF78602B231800DB
:401BC000BD4602B080BDC04680B582B000AF78602B231800BD4602B080BDC04680B582B000AF78602B231800BD4602B080BDC04680B500AF2B231800BD4680BD80B582B064
:401C000000AF0200FB1D1A702B231800BD4602B080BDC04680B582B000AF786039602B231800BD4602B080BD80B500AFC046BD4680BDC04680B582B000AF786000F050F8BE
:401C40007B68180000F00AF8032000F015F800F03BF8C046BD4602B080BDC04680B582B000AF7860034B7A681A67C046BD4602B080BDC0460000002090B585B000AF02004E
:401C8000FB1D1A700623FB600B23FC18FFF705FE030023700B4B0B4A1268C0218A431100FA1D1078FA68904002000A431A600B23FB181B781800FFF7F4FDC046BD4605B01E
:401CC00090BDC0460CE400E080B500AF034B802252011A60C046BD4680BDC04600E100E080B500AF034B802252011A60C046BD4680BDC04680E100E080B500AF11F01AFEE8
:401D0000C046BD4680BDC046002243088B4274D303098B425FD3030A8B4244D3030B8B4228D3030C8B420DD3FF22090212BA030C8B4202D31212090265D0030B8B4219D374
:401D400000E0090AC30B8B4201D3CB03C01A5241830B8B4201D38B03C01A5241430B8B4201D34B03C01A5241030B8B4201D30B03C01A5241C30A8B4201D3CB02C01A524120
:401D8000830A8B4201D38B02C01A5241430A8B4201D34B02C01A5241030A8B4201D30B02C01A5241CDD2C3098B4201D3CB01C01A524183098B4201D38B01C01A5241430974
:401DC0008B4201D34B01C01A524103098B4201D30B01C01A5241C3088B4201D3CB00C01A524183088B4201D38B00C01A524143088B4201D34B00C01A5241411A00D2014683
:401E0000524110467047FFE701B5002000F0F0F802BDC0460029F7D076E7704703460B437FD4002243088B4274D303098B425FD3030A8B4244D3030B8B4228D3030C8B428C
:401E40000DD3FF22090212BA030C8B4202D31212090265D0030B8B4219D300E0090AC30B8B4201D3CB03C01A5241830B8B4201D38B03C01A5241430B8B4201D34B03C01AD0
:401E80005241030B8B4201D30B03C01A5241C30A8B4201D3CB02C01A5241830A8B4201D38B02C01A5241430A8B4201D34B02C01A5241030A8B4201D30B02C01A5241CDD226
:401EC000C3098B4201D3CB01C01A524183098B4201D38B01C01A524143098B4201D34B01C01A524103098B4201D30B01C01A5241C3088B4201D3CB00C01A524183088B424E
:401F000001D38B00C01A524143088B4201D34B00C01A5241411A00D201465241104670475DE0CA0F00D04942031000D34042534000229C4603098B422DD3030A8B4212D315
:401F4000FC22890112BA030A8B420CD3890192118B4208D3890192118B4204D389013AD0921100E08909C3098B4201D3CB01C01A524183098B4201D38B01C01A52414309CD
:401F80008B4201D34B01C01A524103098B4201D30B01C01A5241C3088B4201D3CB00C01A524183088B4201D38B00C01A5241D9D243088B4201D34B00C01A5241411A00D25D
:401FC0000146634652415B10104601D34042002B00D54942704763465B1000D3404201B5002000F005F802BD0029F8D016E770477047C046014B18687047C046601000209F
:402000000E4B70B500251E000D4CE41AA410A54204D0AB00F35898470135F8E711F008FF084B00251E00084CE41AA410A54204D0AB00F35898470135F8E770BD3C3E01003E
:402040003C3E01003C3E0100443E010030B50024A24208D0035D651C0C5DA34201D0181B02E02C00F4E7002030BD002310B59A4203D0CC5CC4540133F9E710BD03008218A4
:40208000934202D019700133FAE77047134A1088810703D08107890F401A001D11791030484381B25088820703D08207920F801A001D800040180A494030098980B2CA0770
:4020C00001D0503080B2890706D504495422091F09785143081880B270470000E40C0020EC10002010B501F057FF10BD10B501F059FF10BD10B501F06BFF10BD10B500F067
:4021000055FA10BD10B50749044609780220002907D1204601F0B4FF002802D120460AF091FC10BD800E002070B504460120002C12D02368002B0FD0616800290CD0074DBE
:4021400006222889208118462968FFF78EFF6968606809780170002070BD0000EC100020FFB585B0002768460E9D07734F481C460078002802D0082009B0F0BD10990F9853
:4021800001900095029105A807C800F001F90028F2D16946264603AB84460873002C19D0002115E08A00B75A082F09D990198078002805D0083FB7521878401C187005E0E1
:4021C000002914D00027B75290198770491CC9B2A942E7D360460028CED10F98002809D0109901F089FA002804D00120C4E701208446EFE701F0ECFE2D48002141608160CF
:402200000599016021888180022D07D3A1798171A17AC171A1890181218A418100211EE0481C19E082008B00A75AE65ABE46BE4211D26F463E80B4461E190296B678BE7031
:4022400001967646E6521719029EBB78B3706646A652019EBE70401CA842E3D3491CA942DED3134822460C3000906846037B0799069800F015F90028B8D168460B4C007B17
:4022800060700B480C3001F0D3FE0028AED1084907480C3107F076FC0028A7D107F090FC0028A3D10121217066E70000DE0C0020E0100020F8B5054633480E4600780028D0
:4022C00002D002242046F8BD002E5BD000242F49002D16D02A89D0070DD02868002808D003881B3BE12B04D24088FB2801D81B2801D2012409E0900707D56868002804D1E1
:40230000F7E70020088108604860002CDAD11F482F8907811C481B21801D018041800421017119490020891C0870F80705D016480622801D2968FFF798FE1449B80703D5CB
:402340006A681148127882700F480D46801D0860001F486001F0BAFE0B48801D01F0A8FE28890DF0B3FC28890DF01AFE03461033FFF78CFE1F21C0188901401802493080EC
:4023800088809FE701249DE7DE0C0020EC100020FFB58446384F1C460020BB883F78054602460646002F11D100290ED0029999420BD36146002908D0002C06D00A9900297E
:4023C00006D02E4B0B99994202D2012004B0F0BD002144E0AB001F19BF78002F3BD0E35A002B38D07B43591889B22B0000F04AF8050410161C253100A7782388BC46FF2756
:40240000233BEB37BB4222D26346032B1FD322E0A388002B1FD0302B19D31CE02389002B19D0282B13D316E0A289002A13D01346134F233BBB420AD20DE0268A002A0AD01E
:4024400033460F4F233BBB4201D2964203D901200EE0002001E000280AD16D1CEDB2099B9D42B7D31C2463435B1802998B42ACD89642AAD8AAE70000DE0C002079020000A6
:40248000BAFF000030B47446641E2578641CAB4200D21D46635D5B00E31830BC18470000FFB583B0002469460C801F4606468C80002806D00598002803D004983043800774
:4024C00001D0012466E0002FFBD03449049809888842F6D3FFF728FBFFF70EFB00F012FC002855D100F07AFD002851D12C49084601F036F905042D0C4AD12A48049906609F
:4025000081800021C18007810C98007AC00704D0684601F076FD040007D10C98007A800703D501A801F076FD0446BF1DFEB2002C20D13146059800F05DF804001AD10DF047
:402540003DFD040016D16A461088928808368518144AF1B29088D288AEB29319984207D3401B801A80B201F0EBFB050007D000E0FF25012400F05EFA002D04D008E0F8B2E8
:4025800000F01CF9F6E700F081FA07490120087000F0CAFB204607B0F0BD0000E20C0020E1260000F8100020EA0C002010B503480078012801D101F065FA10BDEA0C00205D
:4025C00070B5084B0446DA889E8800205518B54206D81D68AA182260DA885118D98070BD032070BDF81000200148008970470000F8100020F0B587B007460D4600208900C7
:40260000009006916846FFF7DBFF844600285DD1304800990160002117E02E4B88001A680629115406D22C4C0419667882185670628805E0C419203CA67A82185670228956
:402640001B68C018491C4280C9B2A942E5D300242DE0601CC2B2059025E01E4FA30039689600581840887118039604904E88B04217D938466F46FE80B6464F786E46777102
:402680000297049F4F800168039F5E18767879184E700168764659184E800068029F18184770521CD2B2AA42D7D30598C4B2AC42CFD36046002809D168460699FFF780FF68
:4026C0008446002802D1054900980860604607B0F0BD0000EC0C0020683E0100F00C00207047000010B5002809D005494A68002A05D0011F08788000105801F0CFFA10BD57
:40270000EC0C002010B50446FFF76EFFC0B2801DA0420CD307484068002808D0A100405801F02EFA002801D00470001D10BD002010BD0000EC0C0020F8B516460D460446F4
:40274000FFF752FFC0B2801DA04203D20020C0430090F8BDB2B2E9B2684601F037FA0099481C03D0024AA000526811500098F8BDEC0C0020F8B50746FFF736FF801DC6B29F
:402780000A49002005460C680DE06178002907D06188B94202D32078FFF7B4FF002804D1241D6D1CEDB2B542EFD3F8BDEC0C002010B5002801D0FFF795FF10BD70B50646B5
:4027C0000948002504680BE06178002905D062882078121D0023FFF7AFFF241D6D1CEDB2B542F1D370BD0000EC0C0020FFB581B00A9F16000C4620D000F0F2F8054604281D
:402800001BD0002F0CD03846FFF7B4FF20492A0151184860002810D03A460499FFF725FC1B4928010E504618778101980570200406D47D20C000444304E0FF2005B0F0BD04
:402840006404640C00F0BAF80746042807D000F04FFAA0420BD800F04BFA201A03E0204600F0AAFA0020F06035720020E6E700F03FFA009000F0B6FA00980121001B009082
:4028800000F0ECF802493A0151180098C860E6E704110020F8B5060116483418217A042903D0E068002802D017E00020F8BD00F01FFA054600F096FA00F0A0F804280CD028
:4028C00001010C480F18F8680021451900F0C6F80020F860284600F06FFA6068054D002801D0FFF765FF042020720020A8516081E060DAE704110020FEB500266A4630463D
:4029000001232549050169180D7A042D02D0C96800291BD000211154401CC0B20428F0D300246846005D002830D01B482101081841894768056802910021016041600422AE
:4029400041810272C160002E02D015E01354E3E700F054F804280ED001010F4808180190C6680021304600F079F801980021C160304600F021FA0126002D07D038460299C4
:40298000A847002F02D03846FFF712FF641CE4B2042CC6D3FEBD0000041100200EB5002005216A460090118150810348694600680EF069F90EBD0000F40C0020074A002009
:4029C000010189180B7A042B02D0C968002903D0401CC0B20428F3D370470000041100200549002002015218127A042A03D0401CC0B20428F6D370470411002030B50A4B84
:402A000004200A4C00210A011219157A042D06D0D268002A03D09A4201D808461346491CC9B20429EFD330BDFFFF0000041100207047000030B50020074C05460423020129
:402A400011190B72A5504D60401C4D81C0B2CD600428F4D330BD00000411002030B5094C00231A011219157A042D04D0D568002906D02D18D5605B1CDBB2042BF1D330BD5E
:402A80002D1AF7E704110020002070471CB5002469460C70142001902346054A05480EF0F7F804480068401C00D1FF2420461CBD092B0000F40C00203EB5124A0146FF20C2
:402AC00000230124126800290DD0012914D0042908D104206946009308814B8110460EF0D2F880B23EBD6846009304814381694610460EF0C3F8F4E7684600930481438147
:402B00006946EBE7F40C002070B545890468416800890300FFF7B6FC08280509091E22282628002005F0F0FE1EE0022908D0C8B22A4621460CF036FA2046FFF739FE13E0B4
:402B400002202A4621460CF02DFA2946204600F00DF809E000200DF095FD05E02046FFF7CBFE01E0FFF760F8002070BD014B0022DB681847F80C002070B544890568008935
:402B8000022803D0032809D0FF2070BD2246094C0023A46829460120A04708E0FFF7AAFA241DA2B200232946022006F09EFE002070BD0000F80C0020704700000248002175
:402BC0004160018041807047F80C002070B50C46002186B016460391012802D0022859D116E003A9012006F0D5FE01281BD1039D324621462846FFF738FA0095287801908E
:402C00000220694608814E816846FFF7B5FF41E0214D002B686809D0049004A9022006F0B9FE01281DD0022006B070BD002812D0298840182146FFF718FA28880024801996
:402C400080B228806988091D884206D12C801348FFF792FF03E00320E6E788421AD96C6018E004986860E278A378110219430B4A698000231060E35653600323138151814F
:402C8000A1788170E178C1706178417021780170042028800020C7E7F80C0020441100203EB515460C46022803D004280CD000203EBD0091019002206946088107484A8163
:402CC00000680DF0E0FF07E00CF06CF9044B0022DB6829462046984701203EBDF40C0020F80C0020014AD16090607047F80C0020034801688068081A0A2148430009704705
:402D00005011002010B5FEF7FFFE482204490548FFF7ABF903490120C870002010BD0000843E01005415002010B5FEF7DDFE10BD70B5134C2368002B08D0207B1149C207AD
:402D400005D04008400020738868A08070BD88680B4AA18880B29268814203D90A4D691A091802E0814202D2411A5118A160A080A0689842EAD30DF0A3FF00F013F870BD2E
:402D800050110020C0102E40FFFF000010B508461946FFF7A7FF10BD704710B5FFF780FF10BD000003480021016041608160C1607047000050110020024610B5FF20002ABF
:402DC0000CD0FFF7EFFF064C0321207B0843207310010A21FFF71EF82060002010BD00005011002000B504480A21806848430209FFF7D8FF104600BD501100200248007B1E
:402E00008007C00F704700005011002010B54B490868002802DA4A4B01221A70022290430860484800694549C00B4031096A0246C907C90F0A4259D0012000F0E5FA3F4884
:402E40000E216C30FEF75AFD3E4820218430FEF755FD3C4814219C30FEF750FD3948FF21C131A430FEF74AFD3648FF212F31B030FEF744FD33483449BC30FEF73FFD31486D
:402E80003249AC30FEF73AFD30492E48491CB430FEF734FD2B482E49B830FEF72FFD29482C49CC30FEF72AFD26482B490830FEF725FD24482949A830FEF720FD214828496D
:402EC0008830FEF71BFD1F4826498C30FEF716FD1C481921C9029030FEF710FDFEF71EFDFEF72EFEC0B2022812D01FE000290BD0002101420AD0114801216030FEF7FEFC5E
:402F00000120FEF7E5FD97E70121F2E7FF2010BD15491648FEF7F2FC14481549001DFEF7EDFC124800210830FEF7E8FC54200449C043891C0870002010BD000000F02E4028
:402F4000080D002000002E40320300002F3F00003102000010520000EC160000FA12000031D000003AE300009956000080012E40F80F000070B50646581C80B245086D0094
:402F8000002408E0304600F0C1F81055000A1119A41C4870A4B2AC42F4D3D80705D0D0182038D15CC47FD454C17770BD30B50A4C002100195B1E07E0541864782502545CE5
:402FC0002C430480891C89B29942F5DB994201D1515C018030BD000000102E4010B5FF2000F012FA0F49FF2048700E481021801D41800121417001700A490020C91C4870C5
:40300000FFF704FF04000AD100F02EF907210648FEF764FC044807211830FEF75FFC204610BD0000080D0020CC112E4070B5002405465B1E0AE0284600F068F8010A161928
:4030400071702D1D1055A41CADB2A4B29C42F2DB9C4203D1284600F059F8105570BD000070B500210A4D5B1E0AE0541864782602545C344346193480001D891C80B289B2D4
:403080009942F2DB994202D1515C4019018070BD00102E40F0B50599091FCFB200217E1E0BE0541864782502545C2C43164D45192C80001D891C80B289B2B142F1DBFC0708
:4030C00012D01C78515C24020F4A0C4381180C809C785D78001D210280B2294384182180001D80B2D9780CE059781A7809021143054A84182180001DD9789B78090280B21E
:40310000194380180180F0BD00102E40014940180088704700102E4010B50B490020487000F0A2F8002000F095F9002000F082F907210648FEF7D2FB044807211830FEF703
:40314000CDFB002010BD00000B0D0020CC112E4010B50C48007801280FD100F089FF00F0DDF8002804D10848016A490849000162054802213030FEF7C1FB02490020C91EB8
:40318000087010BD0B0D002040F02E4010B50B46062812D006DC01280CD0032801D1FFF7BBFF10BD0A28FCD00B28FAD105480078107010BDFFF712FF10BD1146184600F0E6
:4031C00065F910BD0E0D0020F8B5244DAC6A0127A007234E002816DA307806280ED1286A384328621F480069F903084381B21D481030FEF783FB042000F006F9174802219A
:403200002830FEF76BFBE00718D000F06BFF01280FD1002000F0B8FF062000F0F5F81049FF20C91E48707078002802D1686B384368630A4801212830FEF750FBE0050BD5FB
:403240003078042802D1052000F0DEF80348FF2101312830FEF742FBF8BD000040F02E400B0D002000002E4010B503212348FEF745FB0120FEF71CFC20483038406A204CFF
:4032800080076178800F890001431C480C38FEF735FB6078002808D0401E022181401820FEF7A2FEC000083800E0B82081B21548FEF724FB1348032109021438FEF71EFB5E
:4032C00010481149B830FEF719FB612189010F48FEF714FB0D480321001FFEF70FFB0C490C48FEF70BFB0B480B496038FEF706FB084801218838FEF701FB10BD70F02E4096
:403300000E0D0020D8102E4090890000041E2E40FF0F000058122E4020900000044800684007400F022801D0002070470120704700010B4000B5FFF7F1FF002805D0094894
:403340000168C908C900016000BD0748016A490849000162054801690122D2039143016100BD000000010B4040F02E4000002E400849087806280BD148780749002803D194
:40338000486B400840004863C86A01221043C862704700000B0D002040F02E4001480078704700000B0D002000B50300FFF76AF8080D050D0B070507090D012000BD0320AC
:4033C00000BD042000BD022000BDFF2000BD0000074A9168D26889B2064B92B2994204D105498A4201D1012100E000210170704780002E4033D000003FE300000149487024
:40340000704700000B0D002010B50446FEF774FB072C01D9FF2C01D102480470FEF764FB10BD00000B0D00200149487070470000080D002010B5064A012805D01921C90203
:403440001046FEF75BFA10BD1D21C902F8E7000090002E4010B50A4A141D012808D009491046FEF74BFA08492046FEF747FA10BD04491046891CFEF741FA0349491DF3E70E
:4034800088002E4031D000003AE3000070B50C460546FEF755FBC0B202280E49287804D0FF2810D04C280CD810E0FF2809D10A4AD0680004800F032801D0087807E09069BF
:4034C000000A553803E00878207070BD4F382070087070BD0A0D002000002E40F0B50122002834D0002932D00424420600D00524792342065B06D21800D0641C0346002242
:403500001EE00C2516466E43124D00277519AF72104F002ABB51696007D0661EB24209D10D4E86197606760E05E05E06760E8027BE1B00E080269B198919521C2E81D2B2CF
:40354000A242DED303480549006B002288611046F0BD0000DC13002079020000140D002018B50020694608700A48006900280ED0132149014018047E684604704F21C90051
:40358000054800F059F8A04201D0012018BD002018BD0000140D002060110020074900200C2242435218927A012A05D0401CC0B20628F5D30020704701207047DC130020F2
:4035C000F8B50E000446154609D0194F19497868A04202D94018A04201D38D4201D90120F8BD31462046FEF731FD00281ED02A4631462046FEF739FDE8B200210C224A439A
:40360000D21913895568EE18A6420BD90126641B1B1B9672834209DA1469C01A044AC0B220329676491CC9B20629E7D30020F8BDDC13002079020000034610B500200246D5
:4036400004E09C5C2018521CC0B292B28A42F8D310BD000070B500F05FF8084C064A216907480D46FEF701FD05492846FFF736FFFFF776FF207070BD79020000140D0020B4
:4036800060110020002070470020054A002902D0012902D002E0906000E0D06000207047140D002070B5084C154608460549E26889182A46FEF7D9FCE0684019E06028B2F2
:4036C00070BD000060110020140D00203EB50A226946FFF7E7FF044606480A2200686946FEF7B4FC002802D00020C0433EBD20463EBD0000180D0020002802D0044A9142C8
:4037000001D2FF20704703494A6108610020704779020000140D0020024800218160C16070470000140D002070B5074C15460548A26880182A46FFF743FFA0684019A060BD
:4037400028B270BD60110020140D002010B503490A220968FFF7E8FF10BD0000180D002010B50F4A002313600E4A13600E4B18600E4801600E49012008600E49086000022B
:4037800090600E490C4808600D4914300860FF381538506000F0BCF800F0CAF9002010BD480D0020300D00205C0D0020600D00204C0D00203C0D002024150020400D0020FC
:4037C000540D0020014610B50020002910D0094B1A689C685118A14209D25868196080188A0704D08A07920F891A091D196010BD002010BD300D0020F8B50024164E671E97
:40380000321F3D463168136806E01422624310328A58521C1BD0641C9C42F6D36A1C14D02C461422544322460C3288500C214843FFF7C8FF3168002808510AD031680020F2
:40384000103408517068401C70602846F8BD2546E4E73846F8BD0000400D0020F3B50026F64381B000281BDB1E490968884217D80299002914D01B4F142204463F1D544342
:403880002546396810354859401C09D0FEF734F938682F1F4159C359994203DBFEF724F93046FEBD214608310091465801590C20704308180C220299FEF7D7FB0948761C84
:4038C000001D0068C159B14200D100260549009A091D865008684159491C4151FEF704F90020FEBD3C0D0020002803DB07490968884202D90020C043704704491422091D35
:403900000968504310300858704700003C0D0020F0B500200D4A451E0346171F50600FE014260146714314680E1DA3510C461668083433511668083435511468401C6350FB
:4039400039688842ECD30020F0BD0000400D0020F3B50026F64381B0002841DB2349096888423DD8029900293AD0204F142204463F1D54432546396810354859401C2FD0AE
:40398000FEF7BAF83868415900292BD0211D009146580C21005971430F46C1190C220298FEF763FB11480021001D0068761C00590C34C0190160416081600C48001D006852
:4039C0000159B14200D100260849009A091D865008684159491E4151FEF786F80020FEBD3046FEBDFEF780F8FAE700003C0D0020FEB504460D4600201E49089E0860471E19
:403A0000009001900290002C11D0486885420ED2002A0CD0002E0AD0642E08D808460C3001681C2068430C18207A002801D03846FEBD0120226020721846FFF7DDFE606001
:403A4000401C13D06681A6810A4827610C3067610179A94200D205710021684601810A462846029B00F040F82846FEBD00202072DDE70000480D002038B50124009400F0F0
:403A800039F838BDFEB50027164EFF433D4600240EE01C20316860430818017A002906D04068FFF721FF002801D0254603E0641C3079A042EDDA681C12D01C2130684D4317
:403AC0004419FEF719F869466068FFF741FF0546FEF70AF8002DD9D1216868468847D5E7FEBD0000540D002038B50024009400F001F838BD1FB500220C49541E0A600028CD
:403B000011DB496888420ED808491C220C31096850430818406801A9FFF7A0FE401C02D0002004B010BD2046FBE70000480D0020F0B50021114A4D1E174611710C3F0B46CF
:403B4000BD6016E008461C2460431668041D355114680646235014680836A3551468361DA353044616680A34335318301468491C255078688142E5D30020F0BD540D002057
:403B800038B500210091002811DB0F49097888420DDA0D4D04010C3529680859002807D0201D0818694600F06FF9002801D0002038BDFDF7A1FF28680F34015D491E015543
:403BC000FDF792FF009838BD640D0020F7B582B0002502986E1E06602E48D21C024017462D4A2C4610460C380178106805E02301C358002B0FD0641CE4B28C42F7D3711CB3
:403C000028D03401211D40180191039900F02AF900281FD101E02646F1E71F48016820460C300F521C480399026820460E30115419480399026820460F3011540398784336
:403C400000F0A0F8144900280968085102D00024009011E001251AE00F48016801980818009900F02CF9002801D0012502E00098C0190090641CE4B203988442ECD3002D4A
:403C800005D10298066004480179491C0171284605B0F0BDFCFF0000700D0020F8B50D4600216A468C461180002839DB23490978884235DA214B04010C3319680A59002A35
:403CC0002ED020460C300B5A801C0E5C184670438018954224D3854222D2002006E007465F43BF18AF4206D0401CC0B2B042F6D36046002814D0114E271DC8190C366A4643
:403D0000294600F006F900280AD168460088012808D030682946C01900F0D1F8002803D00120F8BD0020F8BDFDF7E6FE30680F34015D491C0155FDF7D7FEF3E7640D0020AC
:403D4000F8B50F46002400F031F8002817D10C4900220B460C334A600EE021011D680E466A501D680C36AA53B61C1D680F31AA551D68641C6A54E4B2BC42EED31A71F8BDEE
:403D8000640D002000280BD0C01C074A81085068890053884118994203D89368516018187047002070470000640D0020F8B5064600200F4D009029700C0121466846FEF7DE
:403DC000FFFB00280CD129460C3100980860301B001F84B221466846FEF7F2FB002801D0FF20F8BD6C800098A8600020F8BD0000640D0020F8B5002827DB1949097888423E
:403E000023DA174C05010C342168485900281CD028460C30085A009028460E300E5C401C0E5420682F1DC01900F064F800280CD12068002445590EE0094829460C30006894
:403E4000C01900F03CF8002801D00120F8BD00982D18641CE4B2B442EED30020F8BD0000640D002030B50D4604000BD0A800FFF789FF6060002805D000202570C0436080D4
:403E8000002030BD012030BD70B50D46040005D0002D03D00220205E002801DA012070BDFDF72AFE0221615E60688900405828606088401E6080FDF717FE002070BD70B595
:403EC0000D46040007D0002D05D002212078615E401E814201DB012070BDFDF70DFE6088401C00B26080616880000D50FDF7FCFD002070BD10B5040009D0227800216068F3
:403F0000FEF7BCF80020C0436080002010BD012010BDF0B500231D46002802D00224045F0AE00120F0BD46689F00F6598E4201D1012503E05B1CDBB29C42F4DA15700020F8
:403F4000F0BD00000148007870470000780D00207CB505460024FEF7CDF8A8796946087000A8062229460130FEF77FF80021684604F090FF0C2806D0072806D01F2806D07B
:403F8000122806D006E0022404E0042402E0272400E0012420467CBD01480121417270475C16002010B502280BD0032802D0042809D102E000F076F905E000F021FAFF287C
:403FC00001D100F031FAFFF7E9F9FFF7EDF910BD10B500F059FAFFF7E1F9FFF7E5F910BD70B504460025FEF785F8002C06D0A079012803D8214602F0D5FD00E00125284616
:4040000070BD01460120002902D05020088000207047000001460120002905D0034854220078504308800020704700007A0D002010B502460D49FE204870032410460DF036
:4040400045F9002810D10DF0E9F800280CD105F0FDFC002808D100F027FC002804D105F0BFF9002800D10024204610BD780D002002480021018280210180704700102E4030
:4040800070B50025044600280ED0A07901280BD8FEF730F8A0790028204602D003F05EF903E003F033F900E00125284670BD0000014610B50120002904D006220248FDF72E
:4040C000D4FF002010BD0000840D002001460120002903D00878024908700020704700007A0D00200148007A704700005C16002038B504460120002C20D0617801291DD8B2
:4041000000290BD0FF25E535FDF7F4FF0C4828180088C0B22070072803D00EE0FF25CD35F2E70020694608706846FFF751F969460878012801D108202070002038BD00001D
:4041400000102E40014A002192681047780D002008B500226B461A7026280CD0094A342852680BD0352805D1900703D50021352005F048FD08BD19462620F9E7D007F9D09B
:404180003420F5E7780D002001490872704700005C160020F8B504460120002C26D06178012902D92278092A20D8002905D0FF25E5352078092803D004E0FF25CD35F8E77F
:4041C00008202070FDF796FF2078114F114E08280DD00020FFF73EF970780128207810D00D4969180880FE2070700020F8BD0120FFF730F90720B8810549203188800120AA
:40420000F2E7B8810248217820308180EBE70000C0112E40780D002000102E4070B50E46050001D0002400E00C4C002C11D0E28A500609D5D107C90F022003F02DF9E08A57
:4042400040218843E08204E0D107C90F012003F023F93146284602F001FE70BDBC150020F8B50546002004460D4E009013E022466946284601F002F90098002801D00DF0B9
:4042800007F8A878214602F0CBFBA878214602F0B9FB641CE4B2308AA042E8D8F8BD000088160020F8B54E4CFFF778F8012847D14C480078002843D002F058FD00283FD0FB
:4042C00004F08AFA00283BD0474E7078C00703D000F01CFD012833D0307E00287DD17078002500285BD0000706D540488089070B00F02EF9384370D13B484178684604F00D
:40430000C1F821793A4CA2788918C9B2814262D802F02CFD002860D0344860300789324E203602F06DFB6846008802F097FB02F033FC30490988884203D10120FFF764F83C
:404340004BE02D49012008702748807B00281DD0002F1BD04036F07E002817D123486030008821494000C031498981420AD26078002807D103F0BEF82049088A0322120232
:40438000104308822078002800D0257002F09CFB0120FFF733F800F025FC174C15E002F0E5FC002819D0102402F0F6FB214602F0DFFA02F053FB104C0120207002F084FBDC
:4043C0000020FFF71BF800F00DFC20780128B4D1FEF7B0FF25700020F8BDFF20F8BD000094150020080D00209C150020A0102E409E0D0020B00D00208A0D0020E0112E40C8
:4044000010B50848FF244078002809D102F0AEFC012805D1FEF79CFE0720FEF7F5FF0024204610BD9C15002038B5FEF7B7FF012801D0002038BD02F099FC00280AD0114C9B
:404440006078C00703D000F061FC012802D0207E002801D0FF2038BD617800290FD0684604F010F8022806D96846008802F0F6FA012002F033FB0320FEF7C6FFD9E700202D
:40448000F7E700009C15002038B51E4CFEF786FF042813D0052811D0062812D003282AD007280AD100206946087002460120FEF76DFEFEF773FF0128FBD138BD00F0B2FB22
:4044C00038BD02F023FB00F0ADFB02F09FFB8007800F0228F4D10C4841880029F0D05B21095D0029ECD101210170A07D0140022002F0D2FF38BD02F00DFB0120FEF784FF62
:4045000038BD0000BC1500209E0D0020F8B50646002403F02FF80546304603F045F803460A480021068A0DE001228A401046174628401F40002803D0002F01D1224394B25B
:40454000491CC9B28E42EFD82046F8BD8816002070B500252C460A4E03E0002C01D0002000E030460079002803D02046FFF7CEFF0543641C2406240EEFD0284670BD000066
:40458000BC1500201CB50020694648706846FFF7AFFD01AA69460A20FEF7F8FD6946042008561CBD70B50D4601F048FB04000BD02079002808D0FDF79DFDE178A0782A4657
:4045C00002F0D2FC002070BD022070BD0148007870470000941500204030C07E002800D00120704700B500F001F800BD902148430749084A40186030417F491CC9B2417727
:40460000D289914201D300214177C8B2704700009C1500208816002013B501F00FFB04000BD001F0ACFE002807D0214601AA0A310620FEF7ABFD00201CBD02201CBD00009F
:4046400010B50C4601F0FAFA00280AD001F097FE002806D0224604490A20FEF797FD002010BD022010BD00007D150020F3B581B0074601460026029802F074FF0446002FB7
:4046800001D0002500E0154D002D21D0284601F00BFB032C04D13946029802F0BFFF06463846029902F0AEF9032C06D0002C10D00121384601F0FEFB03E03146384603F00E
:4046C000ABF9284602F08CF80221284602F0A2F8FEBD3846029902F095F9FEBDBC15002010B5044600F066FA002804D103F05EFE002801D00C2010BD2078611C02F036FD3E
:40470000FF2801D01F2010BD02F07CFDFF280AD02178621C02F0FEF8044821780068026B601C904710BD072010BD0000C40D002010B503F03BFE002801D00C2010BD02F076
:40474000F7FC03480068C06A8047002010BD0000C40D002070B50D46044610210CF0D8FC1021601806460CF0D3FC334610221946204603F049FE102130460CF0C9FC02200D
:404780002870204604F062FD70BD0000F8B504464078217802028006870FE0781143A67809050002090D0643084601F047FA00210546F2B2002812D0002C10D0022F0ED025
:4047C000032F0CD0002A0AD00279092A07D0002A05D0134A5A23527E1B5C9A4207D82889002104F068FC20460CF052FDFF21002914D10C48224600682946436930469847AA
:40480000C0B2FF280AD128464030817EF2B2491C8176FF232146284600F0E3F8F8BD000054150020E00D00200020704710B5044603F0BCFD002801D00C2010BD2078611C81
:4048400002F094FCFF2808D002F0CCFB044821780068426B601C904710BD1F2010BD0000C40D002010B500F06BF904F0B9FD002010BD10B5044600786178E2780843A17819
:4048800011430843217908436179084305D003F07FFD002803D00C2010BD122010BD204602F05CFD002010BD10B5FDF749F902F083FE044803F0DEFE02F09EFB012000F055
:4048C00003F810BD64150020F1B586B003A8009005A8019028489F22817A114081726846FDF722FC002845D169460989C90705D0224806990068C26868469047694609894D
:40490000890706D5002835D11D480068816A0698884700282ED11B4E0025757075737571F575357675767575B570F570B5713746F5730120D03738731F20F880FF213046B2
:404940007972A0300176457600F0F0FA00242046069901F0BFFC002803D1641C2406240EF5D0FD720749BD72B573C0310D704D704D600D7207B0F0BD54150020E00D002097
:40498000C40D00209C15002070B505460E46084602F0F0FD0446304602F006FE0121A9400A46224001400A4301D0012070BD002070BD10B50446084602F0F6FD0121A14092
:4049C000014201D0012010BD002010BD10B5FEF7E5FC032804D102F09DF80120FEF714FD10BDFEB51C4616460F46054601F0F8FEA878FFF7F7FD024601903346394600944B
:404A0000284600F00DF8002808D1A8780199FFF705FCFF2C02D138460CF03AFCFEBD0000FFB585B005460E980C46FF2810D02B49C00009680A5840180179C0795278814226
:404A400001D9012601E09006860F6846038108E06078A1788006860FE0780002014368460181284601F096FC070007D021462846079A00F097FC384609B0F0BD304600F023
:404A800045FD04AE0346039002AA29460096204600F0D1FB3C20405D002818D0284601F079FC012813D0684600890096C0B20190A878231DFF22079902F084F968460089D3
:404AC000039BC2B2A878079902F0C4FCD3E7684600890021C0B20091E9E70000DC0D0020F8B5002600253046FFF710FD07001DD090201149704340186030447F12E0601C09
:404B0000FDF788F9CCB23846E040C007C00F07D02146304601F06CFF21463046FFF7A6FD6D1CEDB20548018AA942E8D8761C3606360ED7D0F8BD00009C1500208816002020
:404B400010B502F059FA0020FFF7BEFE0CF036FC002010BDF8B5002400F0D2F80123012800D10124104F00203E4620360425082203E0002801D0002100E0314609790029C5
:404B800007D001290BD002290BD0114681402143CCB2401C0006000EEBD07C70F8BD1C43F7E72C43F5E700009C15002010B5FFF7D1FF10BD10B5044604F064FD002802D13D
:404BC000601C00F001F810BD1CB500240094062269460194FDF73AFA002800D1122420461CBD000070B50E4CFCF757FE0546FEF7D5FB062802D02078012803D02846FCF72C
:404C000050FE70BDFCF750FE2846FCF74AFEFEF7C5FB0628F5D020780028E5D170BD00008A0D002010B5FCF738FE0446FEF7B6FB012809D0FEF7B2FB022805D0FCF734FE67
:404C40002046FCF72EFEEEE72046FCF72AFE10BD10B50B4681791943817103D08078114602F0C6FB10BD10B582798A43827102D1807802F0D1FB10BD30B50C4C0220A28A2B
:404C80000B4B9978002901D0022906D11D785B78EB18282B01D9032002E0032900D101205105490DC0020143A18230BDC0112E40940D002000B500F029F8002807D0012826
:404CC00005D0032801D0042801D0002000BD012000BD014600B50020C90701D000F010F800BD014600B50020C90701D000F008F800BD000001480068704700008C0D00202E
:404D000001480088000A704720102E400448008B410501D5042070474007800F7047000000102E4010B501F037FF044601F07EFF0146204601F058FF10BD00000148406813
:404D4000704700008C0D002038B50446000610D5FFF7DCFF01280CD1684601F0EBFE6846007800F023FB012001F0A2FD0220FFF71DFF600708D507480179012904D10021FC
:404D800001712620FFF7E4F90348006801692046884738BD980D0020C40D002070B505460C49007800240870FFF7AAFF012803D1FFF7B8FF022803D3284602F03BFA07E0CD
:404DC000284600F0EBF8040002D1034801210170204670BD940D00205C16002070B50446FFF78EFF002801D00C2070BDA27B01211F48002A827801D00A4301E0520852001E
:404E000082706279012A14D0C17849084900C170184D2868016820468847207901280CD06188208803F074F82080207904280FD015E0C2780A43C270EAE72868C168E01DF8
:404E40008847E01D02F076FA0B48808C208006E02868C168E01D8847E01D02F06BFA074920798870204602F0F3F9002070BD00009C150020C40D002054150020940D0020C8
:404E800008B50178FFF73CFF814201D10C2008BD002914D0072069460870FFF70BFF012807D10121684600F0D9F8012801D0092008BDFFF7E1FE02F0FFF9012011E0FFF769
:404EC000F9FE012806D1684601F034FE6846007800F0A0FA02F0E6F9FFF712FF0028FBD10220FFF763FE002008BD000070B505460C49007800244870FFF702FF012803D103
:404F0000FFF710FF022803D3284602F051FA07E0284600F05DF8040002D1034801214170204670BD940D00205C16002038B568460CF044F9002801D01F2038BD0121009891
:404F4000C90201804180002505714571857107214173857302F07CF9009C202200212046FDF78CF825702A460021601CFDF786F8204602F05FF9204602F01AFA00980CF001
:404F800087F9062200210448FDF778F802480C388560002038BD0000980D0020F8B504460025684600950CF009F9002801D007250AE0064E009830602278611C401CFDF7DC
:404FC00054F83168207808702846F8BD8C0D0020F8B504460025684600950CF0EFF8002801D007250AE0064E009870602278611C401CFDF73AF87168207808702846F8BD2E
:405000008C0D00200346084800B5834209D8184600F014FE002804D00089984201D1012000BD002000BD0000FF0E0000074A9179491C8906890E917138220A4092014907FB
:40504000090E114308430249084070479C150020FF0E0000C006C00E70470000F8B507460E4600240D4803E0002C01D0002500E005462979002905D0641C2406240EF3D0D1
:405080000020F8BD0021204601F024F92E712046FFF7CCFF28813C700120F8BDBC15002010B503F0E5F90222002100F003F801F04FFF10BD10B5094B40074907000F090FFB
:4050C000185A595A40185043C0086421FCF7A2FE002800D1012080B210BD0000CC3E0100F7B53D20405C88B015460C46002802D02878042802D200200BB0F0BD69460872C7
:4051000000262046FFF768FA012800D00126204603A938300191009023460327A17E34333246206A03F0C0FA02A8089900900B46019120463A4603A9243003F045F90246EA
:405140006846007A2870204601F0B0F81046D3E7FFB587B00C4605461078694608723D20005D1746002826D000262046FFF734FA012800D00126204603A938300191009086
:405180002346A17E34333246206A03F08DFA02A80090291D019120462B1D03A924300A9A03F012F902006846007A388002D1204601F07CF810460BB0F0BDF0B505463C2098
:4051C000405C89B016460C4600280CD0307869460873002806D000272046FFF7FDF9012803D003E01F2009B0F0BD012703200890204604A93830019100902346E17E3433AC
:405200003A46E06903F050FA6846007B03A928180290009120462B46019504A92430089A03F006F902466846007B3070204601F047F81046D7E7FFB505463C20405C89B043
:4052400016460C46002810D0084601F0A3F801280BD0308869468883002809D000272046FFF7BAF9012805D005E000200DB0F0BD0220FBE70127204603A9383001910090BC
:405280002346E17E34333A46E06903F00DFA291D2B1D07A8129A6D4607C5204603A924300C9A03F0C5F802466846808B3080204601F006F81046D9E770B50D460446FFF704
:4052C0008BF901280AD0E87AA97A00020143A07801F02AFD012808D0002070BD00222421204602F067FD242070BD28214C200155204600F0B1FB282070BD0000002801D0CF
:40530000002000E003484030C07F012800D0002070470000BC1500200146002049070ED50021084B03E0002901D0002200E01A461279022A04D0491C0906090EF3D07047D5
:4053400001207047BC1500200146002049070ED50021084B03E0002901D0002200E01A461279022A04D0491C0906090EF3D0704701207047BC15002010B504468034606833
:40538000002803D00BF098FF0020606010BD4030417070474030817070474030017070470171704792001018C166704770B53C2501F096F9040004D020460021433001F0A1
:4053C00053FCFF222946204600F0E2FB002C02D0A07801F007F970BD10B5002801D0002000E00348002802D0008903F0ABFE10BDBC15002010B5002801D0002000E0044877
:40540000002804D00179072901D100F047F810BDBC15002010B501F063F9002802D0807801F0E0F810BD00207047000070B50546008A00281ED01049F122897A1140C906F7
:4054400018D5294640314A8A098A521C4A4392B2D10800D10121540801E0621A94B2A042FBD9FEF76FFD012804D1298AA878224601F030FD70BD00005415002010B50023E2
:40548000054C0B60248A944204D992001018C26E0A60C36610BD00008816002038B5044600200090A079002814D14020015D052901D00E290ED168460BF090FE002809D1AE
:4054C0002046009902F054FC03481021C28A2046FFF7BEFB38BD00005415002010B50B4604460146184602F0CDF8002802D020460BF0D8FE10BD13B5044601AA114606201C
:40550000FDF744FE6846818861811CBD002800D10220704770470000F8B504462346401D543300909A1EA078911E01F01FFB25464035A88A298A8000FCF76CFC401E81B2AB
:40554000688A884203D96982A07801F0DFFF698A8C20015120460021433001F085FB27480088E88102F084FFE989891C8AB26179FFF7A0FD01F0ECFC02F07AFF2A8A6179FE
:40558000FFF798FD074601F0D7FC688A002806D01B49088A032212021043088202E0002001F0A8FF1648803801886E8A002E0CD0304648431349FCF717FD0004000C01D0D3
:4055C000401C80B21049488002E00F4800214180288A704381B2A07801F0F8FEFF2228374932B9B21346204602F096FCE98AA07801F06CFEA07801F025FAF8BD80102E40E0
:40560000E0112E40710200009E0D00207FB504468034616805460E46183108226846FCF724FD31462031082202A8FCF71EFD102168460BF06DFD6068102108300BF068FD7F
:4056400060682B46083024331022694602F0DCFE7FBD10B504460821FFF705FB10212046FFF701FB207905281FD006281DD008281AD12189002003F0DDFC07202071204623
:40568000FEF7AAFF014620464030012913D00E21017000210176204600F0B6FF2046FFF76BFE2046FFF7C2FE10BD20890122002103F0A4FCE1E70521EAE70000FFB581B00D
:4056C0001F4604460821FFF7CEFA10212046FFF7CAFA2079082803D0092804D0042203E00422012501E009220025204600F03EFE264600204036307022712046FFF73CFE3F
:405700000398002D02D0012808D00BE001280AD120890022029903F071FC04E02189029803F088FC012700203076012F04D0204600F06AFF05B0F0BD02983073204602F0D2
:4057400065FB054605480121C28A2046FFF780FA002DEFD109202071ECE700005415002070B50C460546FEF737FF012809D108212846FFF778FA0023012221462846FFF7EA
:405780009DFF70BD10B5044600F0F0FD2046FFF7F3FD00214034217010BD70B505461A24FEF71AFF012809D108212846FFF75BFA0023012221462846FFF780FF70BD000097
:4057C000F8B50446002000900E4668460BF006FD002801D00D20F8BD8420005908212030009D00F026FA20460421383000F021FA002E02D1204600F0F5FD2946204602F0F6
:4058000046FA0E480821C28A2046FFF721FA204600F06BFF25464035002808D0204600F023F8002801D0092028700020F8BD08202870204600F0D4FFF7E7000054150020F6
:40584000014610B540310A460978082906D0092907D00A2901D100F091F810BD0B20107010BD00F001F810BD70B50446007925464035052805D0062803D008280FD00C204B
:4058800070BD03220621204602F094FA0D480821C28A2046FFF7DCF91120287010E006202873204602F0B2FA0646AA8A0A20424301212046FFF7CCF9002E01D109202071E4
:4058C000002070BD5415002038B504460020009068460BF083FC002801D00D2038BD2046009D00F0BDF908202071204600F07AFD2946204602F0FEF900213D2001550F20B8
:4059000040210855204600F06BFF002038BD00B5024600F02BFD10214032117000BD10B50446FEF759FE012809D04020005D112805D100231A4606212046FFF7BFFE10BD25
:4059400010B5FFF786FE10BD38B504460021684600910BF043FC00280CD12046009902F04AFA05480821C28A2046FFF771F90D204034207038BD00005415002038B50446A2
:405980000021684600910BF029FC002801D00D2038BD2046009902F023FA05480821C28A2046FFF755F90C2040342070002038BD5415002000787047F8B5002569460D70D7
:4059C000002801D0002400E01F4C002C18D0204600F0D5FC002813D0207903280BD005280CD026464036B18AA07801F0F9FCB078012806D01DE0042020711DE006202071A9
:405A0000F8BD0021204601F05AFE274680373868002802D00BF050FC3D600020B0702079072802D12046FFF701FD0221204600F0F1FE20790428E3D1207A69460870342014
:405A4000FEF786FBF8BD0000BC15002010B54C22115400F04CF810BD10B50446FF21FFF702F909202071A07801F0E0FC10BD000038B5FF216A461180002801D0002400E09A
:405A8000084C002C0DD011460620FDF77FFB684601882046FFF72FFD03480068C1692046884738BDBC150020E00D002010B504468079002809D022214C200155FF21204646
:405AC000FFF7D1F8204600F012F810BD10B5037902464032002B03D01173092B02D003E0002100E02221117300F001F810BDFEB50446008900270090278120792646403676
:405B0000002817D0012815D002280AD112E002AA01A9204601F0A4FD002807D101980BF0C1FB204601F0C4FD0028F0D02046FEF797FBB776254680352868002802D00BF0F4
:405B4000BBFB2F606868002802D00BF0B5FB6F60317B002919D0009800F064F8A078002100F092FF2046FFF79BFAA07801F0C6F8A07800F037FDFF212046FFF774F80B2039
:405B8000FFF714F800F068FCFEBD1F213173E2E7F8B517460E46054602F066FC04003CD020460C3001F050F82046062200211830FCF764FA2046062200211230FCF75EFABB
:405BC0001648224600683946436A28469847074626702846FEF700FD012148406070002D10D02889608028464030C1782171002E0FD169796171018AE180418A2181808AD5
:405C0000608106E00648008BC005C00F2071002060803946204603F090F9F8BDC40D002000102E400A4610B50146002003F0A2FA10BD10B50BF048F810BD000000B5014679
:405C4000FFF708FA002801D0002000E00348002802D002898A4200D0002000BDBC15002038B5044680346068002806D168460BF0C5FA002801D100986060606838BD0000D0
:405C800010B5014600F086FB0128887802D0FEF7ADFC10BD90214843024940186030007F10BD00009C15002070B5054604464035A87F012811D1A1789020084A48438018D6
:405CC0006030067F3046FEF75FFE002805D10220A877A078314601F0CBF870BD9C15002010B50C4CA07A002813D0FEF7F9FE0A48027F417F408B00F0B7FB012809D10020F6
:405D0000A07200F02DFF05498989090B01D000F03BFA10BD6C1600209C150020A0102E4070477047490510B5490F0B00FCF7AAFB060704080C0C0F073E21FFF787FE10BD03
:405D40000821FFF7C3FE10BDFFF7D1FE10BDFFF7ADFE10BDF8B507460025002D01D0002600E0204E00F0A6FE3046403044890021418100F0C3FE304600F001FB01282BD183
:405D8000A00702D52846FFF717FEE00602D52846FFF76EFEA00601D5FEF7A2FE600601D500F014FB200602D5284600F01DF8600702D5284600F02CFA380402D52846FFF76A
:405DC00019FB780402D52846FFF706FBE00703D021463046FFF7A6FF6D1C2D062D0EBCD0F8BD0000BC150020F8B5002801D0002400E0284C002C4BD025464035A8780128EE
:405E000046D1FF278820493700593E46002805D02149897A890601D5878AC68A2046FEF7DBFB012834D002F023FB2A8A6179FFF741F9009001F080F800983346283081B22F
:405E40003A46204602F068F8E98AA07801F03EFA12480188688A124E002810D048431149FCF7C2F80004000C01D0401C80B27080A07DC107C90F002001F00EFB01E0002030
:405E80007080288A698A484381B2A07801F09EFAF8BD0000BC1500205415002060112E409E0D0020710200000149096809680847E00D002070B50D460026194A01460028AA
:405EC00001D0002401E014462034002C26D0204600F060FA01280AD19020484380186030007FFEF751FD002801D101F00FFF0D48006881692046884700280CD02046403074
:405F0000817EA94202D3491B817600E086762089294603F0D0F8204600F062FC70BD00009C150020E00D002070B503460088FFF785FE040013D000F022FA00280FD02079D7
:405F4000092819D02546997840352973204601F05DFF0646A878012803D0AA8A02E0022070BDEA880A20424301212046FEF770FE002E01D109202071002070BD0EB5002202
:405F800017216B460292198100905A810120029B00990BF031FA0EBDF8B518480024807A002822D1164E0025B089000B22E0204600F074FE1249A039401807882A46214648
:405FC000384600F051FA012810D00E480122478305770A4944778A72002D01D0002000E02030002801D000F0FBFBF8BDB089000B641CE4B20028DAD1F8BD00006C160020B0
:40600000A0102E409C15002010B50088FFF716FE002809D0014640310C460978082905D00B2903D00C2010BD022010BDFFF71CFC002801D009202070002010BD70B503467E
:406040000088FFF7FBFD040008D0254640352878082805D00B2803D00C2070BD022070BD8420005910220830991CFBF7FEFF2046FFF7CCFA2878082804D02046FFF77EFCF4
:40608000002801D00A202870204600F0A9FB002070BD000010B50C46002121700088FFF7CDFD03000BD000F06AF9002807D00948F121807A0840C00603D4112010BD02203B
:4060C00010BD022020701A8A1889002103F06EF8002010BD54150020F8B50F46002100910088FFF7ABFD040012D000F048F900280ED0E079410641D4617E02264A07002ABE
:4061000008DB8907402500291ADA2843E07135E00220F8BD02F0A8F90021017021894180A1898180217E4170E189C1803E7005460178134802F014FD284602F0DBFF1DE005
:40614000204600F02DF9012806D068460BF046F8002803D00720F8BD2A20F8BDE07900992843E071204601F07BFE607E0421304360760448C28A2046FEF76AFD0020F8BDEE
:406180001D040000541500203EB500220F236C460292238100910190628169460EC900200BF02AF93EBD0000F8B50F46054600F097FA040025D003202071254600264035BF
:4061C000EE76E6702046FFF7A7F901F06BF80920FEF7ECFCA07800F07FFD0121204600F019FB2E706E70AE703A4600212046FFF7CFFC0649887B401C8873A078FFF754FE14
:40620000F8BD284601F012F9F8BD00009C15002010B5002801D0002000E0094800280DD0014640310A464978022901D100215170807DC107C90F002001F02EF910BD00005B
:40624000BC15002070B503460D460088FFF7F6FC04000BD000F093F8002807D01248F121807A0840C00603D4112070BD022070BD20464030418A008A491C41430804C10CBE
:406280005888884201D2122070BD20822079072802D12046FFF7CAF8022028702089002102F0ACFF002070BD54150020016A491C016204D1817E491C4906490E81767047F0
:4062C000C169491CC16104D1C17E491C4906490EC1767047F0B5074687B003A8009005A800260D460190002F01D0002400E01B4C002C05D06846FBF717FF002803D00BE0BD
:40630000022007B0F0BD68460089C00704D1902200212046FBF7B2FE114829460068826820469047050016D1A77066762746267140373E70204600F019F8204601F0B4F95F
:40634000084820820848BE77807AF121084000D001202075E682E8B2D3E70000BC150020E00D0020B80B000054150020002101628176C161C1762030017741777047007942
:40638000002805D0012803D0022801D001207047002070474030807F002800D00120704740300078002807D0012805D0052803D00E2801D0012070470020704710B58078A3
:4063C00001F0F2F8002800D0012010BD10B500F0C7FB03498989090B01D0FFF7D5FE10BDA0102E4070B5054604464035A87F002825D1FF206075A0789021154A48438018BB
:406400006030417F9023491CC9B24177A0785843104B8018DB896030994201D300214177A0789021484380186030467F0677A1783046FEF7A9FA002802D00120A87770BD53
:406440000220A877A078314600F012FD70BD00009C150020881600200020401C0006000EFBD0002070470000F0B515468207920F85B0000A02926A469080002D01D0002480
:4064800000E0564C002C28D0084600F007FC07466846808800280BD00298012843D0022841D003280BD03D20005D012879D08FE04B48381801882046FFF71DF888E00020D8
:4064C000029002A80AF06AFE002807D03D20005D012802D12046FFF7E9FE7CE06846029E8388324600213846FCF744FD3C48381801882046FEF7FFFF284600F0B5FA01AA98
:4065000021463046FEF7ECFD002806D030460AF0B5FE3D204C21085531E0F5773146204601F02AFA57E0002000902089039068460AF024FE002802D0002005B0F0BD6846D2
:40654000009E8388321D00213846FCF713FD2448381801882046FEF7CEFF284600F084FA2046FFF70CFF002805D025464035287E002810D107E030460AF076FE2BE0204609
:40658000FFF76AFA27E001AA21463046029BFEF7DFFD002806D030460AF066FE3D202873EDE712E00298FEF7B5FF0399317003990001090A0143717068468088B070000ABF
:4065C000F0703046FFF7DAFC05E02046FFF76EFE284600F049FA0120AFE70000BC15002000102E4010B5074A917B002901D0491E91730021FFF76EFE002801D0002010BD95
:40660000012010BD9C150020F8B5074606464037B87F00282DD0B078902100904843234945186035287F0099FEF7C3F901281ED0287F401CC4B21E48C089A04200D8002422
:406640000020B877FF276F772F77A87702460146009800F079FD717DFF2903D0304600F0E4FF777501F052FB0025114F19E00320B877F8BD00200090224669463046FEF75A
:40668000FDFE0099002904D0FF231A463046FEF7A8F9641CF889E4B2A04200D800246D1CEDB2F889A842E5D8F8BD00009C1500208816002010B502460021084B03E0002925
:4066C00001D0002000E018460479944204D0491C0906090EF3D0002010BD0000BC15002000B50120FFF7E6FF00BD10B5044601F0BBFE218901808034616841606168283186
:40670000816002F0B1FC10BDF7B50646087982B00C46092807D0A078F0770846FFF73AFE012806D010E030460AF0BCFD022005B0F0BDA1789020294A484380186030007F02
:40674000FEF722F9012810D0A078FEF7D7FD01280BD037780121304601F084FA25462035062F38D00B2F0FD107E06846027C21463046FEF7B3FE0D20D9E72046FDF72CFF46
:40678000012801D1002028772046FFF779FA054604AA21463046FEF710FD01205F2108556946097C002001910090A07833463A46294600F007FB69460A7CA07803232946B0
:4067C00000F048FEA0782946FDF728FD30460AF069FD0020ABE70120D5E700009C15002010B502464032937F0021002B03D1927E002A00D00121064A927A002A00D0002139
:406800000279092A00D10121807800F065FE10BD6C16002070B50C460546FDF7DDFE00280BD1012C06D92879092806D02846FFF7C5FD0446002C02D004E0012402E0A87D36
:40684000C007FAD1A87DC107C90F204600F024FE70BD0000012807D0082804D104480282034808300180704701488038FAE70000A0102E40014908817047000000102E4084
:4068800010B50446FF20F130012C01D1FF20D530002200F053FE044A108A044980B2A0430880108210BD000000102E40A20D0020034B198A034A89B2814311801982704765
:4068C00000102E40A20D002010B50446012802D0082C07D102E0FF20D53001E0FF20F13000F024FE0348018A034A89B221431180018210BD00102E40A20D0020034B198A1B
:40690000034A89B2014311801982704700102E40A20D0020F8B505460120A84086B214460F46012231467C2000F008FE3A463146782000F003FE6078267800020643E078AE
:40694000A2780002024360792379000203430C2045430D2080010549281844182680001D44182280001D40180380F8BD00102E40401880B270470000CB065B0E03434809AF
:4069800001021943D00108430121C902084301490881704780142E404278037812021343084A1382C37880781B021843908248780B78000203431383C878897800020143AD
:4069C0009183704700142E40024A1080000C90801181704700142E40044A002180180288491C89B21029FAD37047000000102E40024A10820148803081817047A0102E406D
:406A00007047000010B5054A1082084600F0BAFD024A0021A03A8018018010BDA0102E4010B50B46044600F005F819462046FFF7DFFF10BD024A10820148803001817047F6
:406A4000A0102E4010B504490882FF20002220211D3000F073FD10BDA0102E400149088070470000C0102E40000202494D3008807047000000102E400249888A042290439E
:406A800088827047C0112E4010B5084B074C0202A03B0029208202D075321A8010BD04490020088088807632F7E70000A0102E40201A2E4000B5034908884880FFF7F8FE53
:406AC00000BD0000A20D002010B50120FDF75CFB01495020088010BD00102E4006490E220028888806D01043888003495120C039088070479043F7E7C0102E4000B5024881
:406B00004088FFF7FBFE00BDA20D002010B5FCF72FFC10BD014952200880704700102E40884201D8081A03E00022D243101A401880B27047002101707047000007488088FF
:406B400006492039098B884201D8081A03E00022D243101A401880B27047000020112E400148008AC0B27047A0102E4070B5084C049D2082074804890548603006880E8045
:406B800001891180808818806007400F287070BDA0102E40E0112E400148008970470000C0102E4000280FD00D4A108B0870000A4870908B8870000AC870094820300088AA
:406BC0000871000A48717047064A10880870000A487090888870000AC8701089F0E7000040102E40C0112E4000B5024A00F004F800BD0000FF7F000000B51346FFF790FF06
:406C0000984201D8022800D2002000BD0148008A70470000001A2E40024908820248008970470000A0102E40001A2E40014880887047000020102E4002490882014880303D
:406C400000887047A0102E40064B1A8999891B8A0270120A42708170090AC1700371190A4171704760102E40012904D00549098BC90B017070470349403109898907C90F16
:406C8000F7E7000000102E40024908820248008970470000A0102E40201A2E40014840897047000088160020024908820248808970470000A0102E40001A2E40044A108267
:406CC0000448028980894843101880B270470000A0102E40881600209021074B414300B5C918FF2260314A770A7700228A77114600F02AFA00BD00009C15002090225043CA
:406D0000074A10B58018FF21603041770177002181770448418EFF201D3000F007FC10BD9C1500205415002000B5044A1082034880308088022200F003F800BDA0102E4089
:406D400010B50023884201D8081A03E00024E443201A4018044980B2884201D8824200D90123184610BD0000FF7F0000024880880006C00F70470000C0102E4002488089AB
:406D8000C007C00F70470000201A2E4070B55478157824022543D47888232602947834435679127936023243002900D09823044908820348A038181805808480028170BD12
:406DC000A0102E40FFB581B014460D4607460A9E0B9BFFF773FF002E0AD0009333460021049AFCF757F905484019C45505B0F0BD0021049AFCF734F9F5E70000A60D00201B
:406E000070B502460448054D808808242C800B460021FCF725F970BD88160020A0142E4010B5212402466401044953200880102300212046FCF714F910BD000000102E40D3
:406E4000417802780902044B0A431A83C1788078090208439883704760142E40034A1082802001430148803001817047A0102E40054A1082044A6032908B0009000108431C
:406E80009115084390837047A0102E4030B500210F4B0A46012809D0032802D005280AD107E04021198102210A2204E004210C2201E004210D221882054C20342088C0B24C
:406EC00005460D42FAD022800021198230BD000080142E4010B5044607480482074801808280032189030820FFF7EEFC200202497530A039088010BDA0102E40201A2E406D
:406F0000054A1082044A60321183000202494B30A039088070470000A0102E40054A491E1082044A60321183000202494C30A03908807047A0102E400349884200D9084606
:406F40000249088070470000FF0F000060112E400349884200D908460249888070470000FF0F000060112E408823002900D09823084908820748A038191808881070000ABA
:406F8000507088889070000AD07008891071000A50717047A0102E4010B51446024606480B46C0880021FCF741F8012C02D103495420088010BD00008816002000102E4019
:406FC000064A11880170090A417091888170090AC1700349542008807047000080142E4000102E400121814010B589B200227C2000F0A4FA10BD0000FEB5FF210120FFF7C0
:407000003FFCFF210820FFF73BFC3020FFF750FC3F48802101803F483F4D00784007400F02286FD001286BD100202880002211460320FCF7ABF8394E3949B08D8882384FA5
:40704000002420373248A0300482308F38822046FFF754FE641C2406240EF3D0B08F38832E48103000F052F9716930690191009069464879C021084369464871684600F0DD
:407080006DF900F055F82548214C40304188A03421838188A1831E49C088C0318880708E38802048002606823920FFF727FC184F532038801C490720088354203880E020BA
:4070C000FFF78AFCE820FFF787FCF020FFF784FC0020FDF7E5FF13488682282101838015A0810F48403086815B203880094800784007400F022807D0012801D10B482880D8
:40710000FEBDFFE7032090E70848C01CF7E7000000102E4088160020001F2E4054150020C0112E40001A2E4080142E40E023000004480021818301830249742060390880F7
:407140007047000060102E40074B1882064B6033988B00090001084399158843002A01D11021484098837047A0102E40F3B50D2284B0920100924A780B781202134303939F
:40718000CA788B78120213434A790979FF20120211431A4A8C46918B9E460291118B01911649742260390A80154900220F7821E00121124B9140009C603BE3181D8889B2DB
:4071C0001C881B88039E6E407546654064462E435C4026430CD1029B194209D00199D140CB070499DB0F8B4202D1104606B0F0BD521CD2B29742DBD8F8E7000060102E4033
:407200009415002030B50949FF208C8B084A00210125137805E02A468A40224204D0491CC9B28B42F7D830BD084630BD60102E409415002010B50446E020FFF7CDFB2078ED
