:400000000040002011000000490500004905000010B500F0A1FAC04670B512222A4B1A6001F072FC294801F083FD012001F08CFC302001F081FB264A264B1A60264C80250B
:40004000ED052560254A116802230B431360244A244B1A600022244B1A60244A136808218B431360FA20C00001F01AFC204801F00DFC204A204B1A60204B214A1A60FE2284
:40008000120220490A602049196020490A60204A1A60802212061F4B1A608022D2021E4B1A6042221D4B1A60023A1D4B1A6001321C4B1A601C49082001F098FB082001F027
:4000C00075FB256070BDC04630001040001BB7000600008004010B400C020B4078002E402D3E00007C002E4064F02E406CF02E40DC050000007FBB000803014000000140E8
:4001000042FF00800003014040FF00800403014041FF008008010B4000010B402C0101401401014010010140611A000010B572B600222F4B1A6000240FE02E4862001319A8
:4001400059000B00411889881A5AC31858880004104300F0BFF90134E4B2012CEDD925490C3125483C3000F09BF98022D202234B1A60EE221206224B1A60C0229205214B6B
:400180001A6099231B04204A1360204A1360204A1360802212061F4B1A601F490B783C22934314221343DBB20B701C4A117816230B43DBB21370D8231B04194A13607E21ED
:4001C000184A1160C0214903174A11603E21174A11608231164A1160164A13600123164A1360164A1360FFF717FF00F099F910BD6CF02E40903C0100103D010014000B403C
:40020000000002400003024000500F4020500F4030500F4038500F4001700F4000700F40080004400002044008020440180204400003044008030440000404401804044038
:4002400010B5064C2378002B07D1054B002B02D0044800E000BF0123237010BDD8100020000000008C3C0100084B10B5002B03D00749084800E000BF07480368002B00D131
:4002800010BD064B002BFBD09847F9E700000000DC1000208C3C0100A00B00200000000030B585B000F0B6F9434243416A46D37001F034FC434243416A46937000F096F9BA
:4002C000434243416A465370154B1B78022B24D101AC0C3323816B46033301930123A380104D00232A00002120000EF093FD152323816B460233019300232A0000212000BE
:400300000EF088FD182323816B460133019300232A00002120000EF07DFD05B030BDC046042300200C23002000B585B0124B1B78022B1FD101A80F330381104B0193022324
:40034000838000230E4A00210EF064FD0D4B1B68002B0CD0094B1A885B889A4207D0084A137850780002184301A90DF0E9FE034B1A885A8005B000BD04230020A40B00202F
:400380000C2300204C22002070B50C00282808D002D8012805D05CE041280BD04C2810D057E000222B4B1A60002000F0E7FE01F05FF94EE0FFF774FFFFF7B6FF01F0F6F8B3
:4003C00047E08B890E2B15D1081D3233224A00210EF020FD00280DD163681B7858425841C0B200F00BF91C4A13785078000218430DF0FCFEA389152B15D1201D2B33164A1A
:4004000000210EF007FD00280DD163681B7858425841C0B201F076FB0F4A13785078000218430DF0E3FEA389122B12D10A4D201D2E332A0000210EF0EDFC63681B78012253
:400440001340044A13602B786878000218430DF0CDFE70BD4C2200200C23002010B562B600F018FB00F064FB0B4800F031FE00F037F9002809D100F0ABFC084B188000F081
:4004800095FC00F061FAFFF74FFF01F0D5FF032001F0CAFFEBE7C04689030000A40B0020F0B50025002711E0BB00C658F3B2FF22964308E06A008A181478A4195278227054
:4004C0000135013BDBB2002BF4D10137052FEBD9F0BDC04610B50A00002101F071FF10BD0C4B1B68002803D080221206134301E05B005B08074A1360074B1B68002803D0F4
:4005000080229204134301E0044A1340024A13607047C04680033A4008010B40FFFFFFFD10B50323054A1360054A13600022054B1A600120FFF7D4FF10BDC046300030402C
:4005400030003140000E3F4010B501F0F5FE03680C2B00D1FEE7FEE770B50F4E0F4D13E029686B68AC68002202E001C901C30432A242FAD1E868002202E0002102C3043237
:400580008242FAD11035013E002EE9D101F0DAFEFFF764FFFEE7C046010000000C41010010B50E4A136801218B43136000230AE0032B03D89A000A49505800E00948990074
:4005C000094A885001332F2BF2D9FFF7AFFD034A116801230B43136010BDC04600001040000000004905000000000020024B1868C0090123184070470403044004490A68C6
:40060000D2B240239A438001184010430860704700020440024B186880090123184070470402044070B5154C2368DBB2144A13700F2083431900134D2B780F2213400B4330
:40064000E13293432A788243134323600E4A0F4B1A600F4A0F4B1A600F490B688343062213430B60013001F0ABF80C49102001F0BDF80321102001F0CBF870BD00FF2840F2
:400680005D22002062F1FF0F00020001080028400008A00104002840000402404D0E000010B501F02DF801F001F80021002001F009F80021002001F02FF8FF2000F0E8FFCA
:4006C000402001F00FF8044A136804490B431360102001F06BF810BD0400284000100880024B1878012318407047C046F41000204000024B181880887047C046F410002096
:40070000F8B5104F3E5C3818037A5D005D19EDB29B00DCB201F015FAB300FB181E6932680F21A1408A4311000422A2400A43DC6A23680721A9408B432360326001F005FACB
:40074000F8BDC046643D0100F8B5194A145C13181F7AB900C9B27D007D19EDB2154B185CA300D3181E6933680F228A4093433360022800D10020012801D1002600E00626C2
:4007800001F0DFF9A4000A4B1C19E16A0B680722AA4093431A003300AB4013430B6001F0D4F9A16C0B680122BA4093430B60F8BD643D01006822002010B5002403E0200019
:4007C000FFF7C2FF0134042CF9D910BD044A11684002C023DB001840084310607047C04604002840CA0807231940063B8B40825C134201D0012000E00020704710B5040035
:400800000134E4B2052C06D0210004480430FFF7E9FF0028F4D0200010BDC046A80B0020F8B50400324B1B1864229B5C9B00314A9D5801003048FFF7D5FF304B9D4203D854
:400840008540FF231B041D4300F05AFF00F02EFF2B4B185D013880B2002100F033FF294B185D013880B2002100F056FFFF2000F00FFF402000F036FF102000F0A1FF802255
:400880005202214B1A60204B1B681B0CFBD101221E4B1A60102000F09DFF102000F086FF102000F08DFF1A4801681A4B19401A4B1B5D1A4A125D120413430B430360184F4D
:4008C0003E68184B1E40184B1E43102000F06EFF2000FFF715FF01F034F904003E60002001F026F9084B1D60200001F02EF9F8BD643D0100A80B00205C220020FFFFFEFF5B
:4009000070220020782200200C002840140028400800284000FF80FF542200206022002004002840FF1FDFFF20E0200010B5054B00221A70C2B29A7381221A70FFF770FFD9
:4009400010BDC046F410002010B50C4C00232370FF33A373A07BC0B2FFF750FFA073A37BDBB2042B08D8217801230B43DBB22370A07BC0B2FFF754FF10BDC046F4100020CE
:4009800070B50500184B1C68A4B24300174AD3189C80174B1B1864229B5C9B00154A9A58154B9A4208D801001448FFF71BFF6B000E4AD31804419C802800FFF7C5FE10207E
:4009C00000F0FEFE0E4A11680E4B0B40A02109020B4313600C4A11680C4B0B401360102000F0E4FE70BDC0460C002840F4100020643D0100A80B0020FFFFFEFF5C2200204A
:400A000004002840FF1FDFFF0800284000FF80FF10B5CC0807231940063B8B40DBB2002A04D0041922781343237003E0041922789A43227010BDC04670B5060000240025BD
:400A40000BE03000FFF772FFFFF74AFE0128FBD03000FFF74DFE24180135002DF1D0A0B270BDC046014B19547047C0466822002010B5002404E000212000FFF7F3FF013421
:400A8000042CF8D9FFF7CEFD0020FFF79FFEFFF793FE10BD10B50B4BDB7B002B04D1FFF7E7FF0122074BDA73FFF7FAFD00F094FA0122044B1A74044A13688021C9030B436F
:400AC000136010BDF410002004002840F0B5002714E00C4BDE5D0C4BDB5DF6181A00002404E08D5CAC4200D22C000132B242F8D301E0CC540133B342FBD301378742E8D39A
:400B0000F0BDC046E43D0100E83D01004300054A9A5A05495A52081800210173017503495A527047F8100020081100208422002010B5FFF709FFFFF7D3FD0028FBD1002498
:400B400009E021000548FFF74DFE002802D02000FFF7DCFF0134042CF3D910BDAC0B002070B5094D14352D180026FF20002308E0EC5C944203D9A64201D22600180001339D
:400B8000DBB28B42F4D370BD08110020F0B583B004000192009308AB1878344B14335918002C02D0661EF6B200E00026631CDDB20B5D9C462D4B243362465A70002C07D165
:400BC0002A4B002624229E544A5D24339A7012E0019A013A944207D1895D244B24229954243300229A7006E08E5D204B24229E544A5D24339A7024231C4AD35C834204D99F
:400C00001B1A242219498B5403E000212423174AD154164A243253781B1ADBB253709278904204D2101A114A2432907003E000210E4A243291700D490A00243292782420DD
:400C4000095C501AC9188918000201F089FA240200196B4600255D5F6843FE23DB019C466044000CC0B203B0F0BDC04608110020401849004018800880B27047F0B54746F5
:400C800080B482B004003C4B1E5C3C4B9B5D019342003B4BD75A3B4B5B7A002B08D03A4D9046515B3800FFF7E3FF070043465853E1B2334A354801F00BF86300344A9A5AB5
:400CC000974207D30021334B1955BD1AADB20123984603E0D51BADB2002398464346002B15D12D4B9B5D9D4211D92A4B1B5D254A12191279934206D32000FFF707FF0022F8
:400D0000244B1A551EE00133224A13551AE06B469B889D4206D9204B9B5D9D4212D24346002B0FD113029C46194801190B7B66463343FF18BF1A3A0A6300C2520F73002220
:400D4000144B1A556B469E88B5420DD94346002B0AD0FF2D04D90E4B1C19FF23237507E00B4B1C19257503E0094B1C190023237502B004BC9046F0BDC83D0100942200200E
:400D8000F8100020C40B002084220020B0220020081100209C2200209822002010B5040000F0A2F82000FFF769FF10BD10B5002409E021000548FFF715FD002802D0200073
:400DC000FFF7ECFF0134042CF3D910BDAC0B002030B583B00400194B1B181D7B184B1A5C05210020FFF7BCFEFF281FD0154B1B5D0093C8235B0105220021FFF7C7FE010057
:400E000080B26B1CDBB20D4A5219127B002A06D10A4AD3181973551901232B730BE0074CE418217BFFF724FF207304E0034B5D1900232B73044803B030BDC046C40B002055
:400E40008022002094220020FFFF000010B5102000F0B6FC01221E4B1A601E4B1878C0B2FFF78EFD1C4B1B785BB2002B05DA1A4A137801218B43137026E0164C2078C0B26E
:400E8000FFF7BCFC20702378DBB2042B05D8114B1878C0B2FFF7C4FC16E00F4B1A7801218A431A701B785B060ED500220B4B1A7006E00B4AD15C0B4AD1540133074A13708E
:400EC000064B1B78002BF4D0102000F06FFC10BD1400284002110020F41000202F11002050220020AC0B002070B582B0154B1C5C154EC1B2154D009533002200144800F08E
:400F000065FF335D295D134A1155DB2B03D8DB08114A135514E0EC2B03D81B090E4A13550EE0F42B03D85B090B4A135508E0F92B03D89B09084A135502E00022064B1A5511
:400F400002B070BDC83D01008022002094220020B02200209822002090220020024A136840218B431360704704002840044A1168044B0B40802189000B4313607047C046C1
:400F800008002840FFFCFFFC70B5002208E00D498B5C5D080C4CA55401335B088B54013203789A42F3D3102000F00AFC074A1168074B0B4007490B431360102000F0F6FB34
:400FC00070BDC046542200206022002008002840FFFCFFFC0002000170B5254B05221A70012159709A702B32DA80224A9A80224A9A60FFF7B3FF002304E099001F48204A26
:40100000885001331A4A52789342F6D3002306E010211C4AD1540C391B4AD1540133042BF6D9FFF7A3FF194E114C3100200000F0AFFD174D29000120FFF748FD200000F0D0
:40104000B8FD3100200000F0A3FD29000120FFF73DFD200000F0CEFD2000FFF795FF002403E02000FFF740FF0134042CF9D970BDB022002098090000EC3D01000000FF0F50
:40108000A80B002078220020702200209A0D00005422002010B500F07DFA10BD10B50024064B1C70064B1C70064B1C70FFF7F2FF054B1C70054B1C7010BDC0460F23002077
:4010C000082300200E230020F4220020FC22002010B590B0040014221F490BA801F067F91E4B1B78002B04D1FFF7D8FF01221B4B1A70002C2DD01A4B1C6008A805AA42604E
:4011000006AB0893002101811B311980598017391971002313701231694401F069FA002818D1104B0293104B0193052300930BABAE2212010D490E4801F0B0F9002809D1B2
:4011400001220C4B1A700E3219210B480DF04AFE00E0012010B010BD583E010030110020F82200207902000080490100C0000020E1120000042300206C3E010010B50228A0
:4011800033D81E4B1B78042B31D11D4B1B785B0730D400280BD11B4B1A004032002111822022596C0A805B6C10325A800EE001280CD1144B1A00403296211182C822D20093
:4011C000596C0A805B6C8022D2015A800E4B18700C4840300BF02AFE00280DD1084A117804230B43DBB2137006E0012004E00420FF3001E00420FF3010BDC04604230020D0
:401200000F230020DC0B00200E2300207047C04603784078000218437047C04670B5050083890B2B1FD1043035332A0000210DF0F1FD041E11D16868FFF7EAFF830706D5B4
:401240000A4B1B68290082204000984705E0074B1B6829000620FF309847054A137801218B43137000E00024200070BDF82200200F230020024B00225A701A707047C046EB
:401280000C23002010B582B00400FFF7C7FF0A4B1B78DB070ED4002809D001A912238B70A3890B80C87020680CF00CFF02E020680CF09CFF02B010BD0F2300208379002B2A
:4012C00007D000200BE0C25C002A07D10133DBB200E00023052BF6D9002000E001207047F0B583B004000D00984A117801230B43DBB21370272800D1BFE012D8062800D1D3
:4013000083E004D8012821D005287AD00DE1242800D1AEE0262800D1B7E0212800D004E187E0422800D1ECE006D8282800D1A8E0412800D1D1E0F8E04C2800D1ECE0FA28A5
:4013400000D1EDE0432800D0EFE0DDE001AE0727377000237370300003F0B4F8377001237370300003F0AEF8794B1E683000FFF7A5FF00280CD0300001F062F8744E0021C2
:401380003068FFF743FF30680121FFF73FFF2AE0704B1F78704B18788001FC263601020032403F21394011436C4B1B781B03F8225202134019436A4B1B785B04FE221204EB
:4013C00013400B43674E33701A0A72701B0CB370300001F035F800213000FFF717FF01213000FFF713FF00200BF0B4FB01A83F230370002343700BF0CBFB04225A4B1A706B
:4014000093E02A78594B1A708FE02B78002B00D08BE06B78002B06D1554B0022DA809A80544A1A606B60494A137801218B4313707BE0464B1B789B0677D44F4B1B78102B8F
:4014400002D105224C4BDA704C4B18784A490BF0ABFC01AB1880002804D0494B1B6801A936209847394A117801230B43DBB213705BE06A78434B1A7057E002223A4B1A70D2
:4014800053E00422384B1A704FE0374B1B78022B4BD02E4A1278D20747D52C4A1278520708D50322304B1A70284A137804218B4313703AE0254A1278120708D504222A4BCC
:4014C0001A70224A137808218B4313702DE0032B2BD10422244B1A7027E0284E02222900300000F064FF0022204B1A7031789E318900254B591801310432244800F057FF3B
:4015000013E0FFF7B7FE10E06988162900D9172128880CF0E1FD08E02800FFF7B3FE04E01B4A117801230B431370084B1A7811231A4209D0054A137801218B431370104BDE
:401540001B6829002000984703B0F0BD0F230020300C00207CF1FF0F7DF1FF0F7BF1FF0F78F1FF0F340C0020042300200823002034110020A00B0020280D00200C23002004
:40158000F8220020FC2200208049010000230020F42200207047C046034A117880235B420B43DBB21370704772000F40024A11787F230B401370704772000F40014B187036
:4015C0007047C04602000F40014B18707047C04642000F40014B18707047C04622000F40014B18707047C04682000F40014B1878C0B2704762000F40014B1878C0B270479C
:4016000052000F4010B501E0FFF7F6FFFFF7EEFFC306F9D410BDC04610B513490B783F22934309221343DBB20B70104C227801231343DBB22370FF20FFF7C0FFFF20FFF74F
:40164000C3FF7F20FFF7C6FF0020FFF7C9FF00F078FA227810231343DBB2237000F075FAFFF7D0FF10BDC04672000F4092000F4010B5064B1B78002B04D1FFF7CDFF0122A4
:40168000024B1A70FFF788FF10BDC0463C110020044B1B68002BFBDB0002034B1843014B186070470000014040000080034B1B68002BFBDB024A014B1A60704700000140C0
:4016C0004000004010B5064A13680724234000021843CB00FF2119400143116010BDC04600030140044B1B68002BFBDB0002034B1843014B186070470000014041000080E4
:40170000034B1B68002BFBDB024A014B1A607047000001404100004010B5064A13680724234000021843CB00FF2119400143116010BDC0460403014010B586B0040000F0CE
:4017400000FA0E4B1B6800930D4B1B680193033C0C4B1B5D02930C4B1B68039304AA0B4B04936B4605930A4B1A600A490A4A11601B6800F0EAF906B010BDC04608010B4080
:4017800000010B40B840010030001040B6EA0000080010401700008004001040024B1B68012018407047C0460C002E401F2318401E3B8340014A13607047C04600E100E00F
:4017C0001F2318401E3B8340014A13607047C04680E100E01F2318401E3B8340014A13607047C04680E200E001BE704770B504000D001F2802D90020FFF7F6FF1034A40043
:4018000080239B059C4664442068256070BDC04670B504000E00032902D90020FFF7E4FF1F2C02D90020FFF7DFFF03252540ED00063500F086F9A408A400074B9C466444FA
:4018400021680323AB4099430B003100A9401943216000F07AF970BD00E400E010B5040006E0084B586800F063F9074B9C46644480231B029C42F4D8024B9868604300F068
:4018800057F910BD300D00200080FFFF10B5034B1B7B584300F04CF910BDC046300D002010B504000F4A116801230B4313600E4A0E4B1A600E4A1368802109020B4313609C
:4018C000002809D100200CE00120FFF7DFFFFFF765FF002804D1013C002CF5D1102000E0002010BD60F02E400220000078002E4010002E40034B1868C0231B02184000D028
:401900000120704700010B4010B50D4B1A6801218A431A601A68022082431A60094A10683024A043203C204310601068093CA043014311601A68802109060A431A6010BD4C
:4019400000F02E4000FF2E4070B51D4B1B6801241C40002802D0012816D02BE0184B19680122914319601968022081431960154B19682E30814320380143196019680938E9
:4019800081430A431A6018E00D4B1A6802218A431A600C4A10680725A84301431160116830208143103801431160196801220A431A6002E00020FFF717FF200070BDC04670
:4019C00000F02E4000FF2E4010B500F0BAF8044A1368C02109020B43136000F0B6F810BD00010B4010B500F0ACF808490A68084B1A408024E40122430A600A681340802200
:401A0000120213430B6000F0A0F810BD00010B40FF3FFFFF70B5050000F093F80400FFF769FF002803D0FFF7DDFF012100E0002108482840084A1568084B2B4018431060ED
:401A40001368012901D1FFF7BFFF200000F07DF870BDC0460404040010020B40FBFBFBFF10B5244B1B685B0715D5234B5B685B070ED5224B596A042001401F4C62688A431A
:401A800062605A6A82435A629B69002B00D098470420FFF7BFFF174B1B685B0518D5164B5B685B0510D5154B596A8022D2001140114842688A434260596A114A0A405A6250
:401AC000DB69002B00D098478020C000FFF7A2FF084B1B685B030CD5074B5B685B0304D5064B1B6A002B00D098478020C002FFF791FF10BD10020B40440D002040110020CC
:401B0000FFFBFFFF04490A68D2B240239A438001184010430860704700030440024B1868800901231840704704030440000000000230800803D00138FDD1C046C046C0461E
:401B40007047EFF3108072B6704780F310887047F7B59C180023071C08268025019100922370237800982B432370BB689B6C9847019B984202D22378AB432370013E6D0814
:401B8000002EEED12378F82B01D9F8232370F7BD70B5051C0E1C00242B789C4208D2AB68221C281C311C1B68FFF7D2FF0134F3E770BD38B5051C00242B789C4219D2AA6837
:401BC00013681B5DDB080F2B00D90F23D16BD268C95C1155AA68042B04D9936D906B211C012203E0936D906B211C002298470134E2E738BDF0B5041C002687B063789E4264
:401C000062D2A3685A6C925D0392002A01D1013203921A6C925D019201992278914251D29A689B69515C0F221140B2000492002205910499019D5A50019B5B000293039BE1
:401C4000019A9B189D423DD2A768E388A0885843FB68595D00F084FA3B68595D00F0F6F9059B5843194B40005A2802D95B084008FAE7BA6904991B0C1B045350A368820826
:401C80005B6B01215855A368C008DB69029F5A550F22A36849421B6A5855A3685B6A5A55A368986AC1530021D86AC153186B9B68C1535B19197801350A401A703B1C0233E3
:401CC0000293BCE7013699E707B0F0BD0000FFFFF0B585684E002B6B925B9B191C8887B0141B0094AC6A1A80A45B6B6A0294EC6A5F5CA45B2B6A03946C6B7F00645C5B18FF
:401D00000494AC680193645C1B780594009CE40FA4460F24251C6744009C3D40AC46E51764196C409C4203D2012B05D0013B00E00133FF273F2B00D89F00019D2B706546C0
:401D40000F2D29D0002D24D0BC4225D8059C029F24090094974200D9171C039D954200D2151C009A092A01D8141C01343A1C0A2C14D1EA1B934206D9049A92089A42924194
:401D800052429B1A00E001338268D26953543A1C04E0151C644601E0151C00246746836824015B6A5F5483689F6ABA53DA6A9B6895530F225B181D782A401A7083689B682F
:401DC00059180B781C430C7007B0F0BD70B58068446BC069655C405CFF213F2801D88100C9B246B2FF24002E01DB4000C4B28D4201D9291C6C08012081439954049B9C5474
:401E000070BD00000160704701607047324B1A781202324B1B781A43314B1B781B02314909780B4330498B4201D1072A06D0D42109018B4206D1042A04D102E02B4B0422FD
:401E400000E02A4B2A490B602A4B1A602A4B1B781B022A4A1278134380229201934202D0002B02D002E0264B00E0254B254A1360254B1B781B02254A12781343244A9342B7
:401E800005D0244A934204D0052B05D103E0224B02E0214B00E0204B204A1360204B1B681B09204A1268AA2A15D1012B13D9164B1B780E2B0FD11C4B1B781B021B4A12788F
:401EC00013431B4A13601B4B1B781B021A4A127813431A4A13607047D9F0FF0FD8F0FF0FDFF0FF0FDEF0FF0F580B0000580D00006C002E4074002E40DBF0FF0FDAF0FF0F31
:401F00000220000078002E40DDF0FF0FDCF0FF0F0F0F000005050000050F000080002E40EC0F00F0E00F00F06DF2FF0F6CF2FF0F84002E406FF2FF0F6EF2FF0F94002E4046
:401F400010B5FFF7A3FC10BD10B5FFF787FC10BD10B500F04BF810BD10B500F04FF810BD10B500F04BF8034800F02AF8032000F02DF810BD4520000010B5024800F046F8A5
:401F800010BDC046452000000220FF307047C0462B2070472B2070472B2070472B2070472B2070472B2070472B2070472B2070472B2070472B2070472B2070477047C04608
:401FC000014B18677047C0460000002010B50400FFF7B7FD044A1368C0218B43A4011C431460FFF7B2FD10BD0CE400E080225201014B1A607047C04600E100E08022520166
:40200000014B1A607047C04680E100E010B50400FFF7F4FF2000FFF7D3FF0320FFF7D6FFFFF7E4FF10BDC04610B5FFF78AFD044A136804218B43136030BFFFF786FD10BD02
:4020400010ED00E010B511F00DFE10BD002243088B4274D303098B425FD3030A8B4244D3030B8B4228D3030C8B420DD3FF22090212BA030C8B4202D31212090265D0030BBB
:402080008B4219D300E0090AC30B8B4201D3CB03C01A5241830B8B4201D38B03C01A5241430B8B4201D34B03C01A5241030B8B4201D30B03C01A5241C30A8B4201D3CB0291
:4020C000C01A5241830A8B4201D38B02C01A5241430A8B4201D34B02C01A5241030A8B4201D30B02C01A5241CDD2C3098B4201D3CB01C01A524183098B4201D38B01C01AA3
:40210000524143098B4201D34B01C01A524103098B4201D30B01C01A5241C3088B4201D3CB00C01A524183088B4201D38B00C01A524143088B4201D34B00C01A5241411A79
:4021400000D20146524110467047FFE701B5002000F0F0F802BDC0460029F7D076E7704703460B437FD4002243088B4274D303098B425FD3030A8B4244D3030B8B4228D30C
:40218000030C8B420DD3FF22090212BA030C8B4202D31212090265D0030B8B4219D300E0090AC30B8B4201D3CB03C01A5241830B8B4201D38B03C01A5241430B8B4201D3D9
:4021C0004B03C01A5241030B8B4201D30B03C01A5241C30A8B4201D3CB02C01A5241830A8B4201D38B02C01A5241430A8B4201D34B02C01A5241030A8B4201D30B02C01AED
:402200005241CDD2C3098B4201D3CB01C01A524183098B4201D38B01C01A524143098B4201D34B01C01A524103098B4201D30B01C01A5241C3088B4201D3CB00C01A524130
:4022400083088B4201D38B00C01A524143088B4201D34B00C01A5241411A00D201465241104670475DE0CA0F00D04942031000D34042534000229C4603098B422DD3030A2C
:402280008B4212D3FC22890112BA030A8B420CD3890192118B4208D3890192118B4204D389013AD0921100E08909C3098B4201D3CB01C01A524183098B4201D38B01C01AB7
:4022C000524143098B4201D34B01C01A524103098B4201D30B01C01A5241C3088B4201D3CB00C01A524183088B4201D38B00C01A5241D9D243088B4201D34B00C01A524168
:40230000411A00D20146634652415B10104601D34042002B00D54942704763465B1000D3404201B5002000F005F802BD0029F8D016E770477047C046014B18687047C046BE
:40234000D01000200E4B70B500251E000D4CE41AA410A54204D0AB00F35898470135F8E711F0C2FE084B00251E00084CE41AA410A54204D0AB00F35898470135F8E770BDBD
:40238000F4400100F4400100F4400100FC40010030B50024A24208D0035D651C0C5DA34201D0181B02E02C00F4E7002030BD002310B59A4203D0CC5CC4540133F9E710BD9B
:4023C00003008218934202D019700133FAE77047134A1088810703D08107890F401A001D11791030484381B25088820703D08207920F801A001D800040180A494030098993
:4024000080B2CA0701D0503080B2890706D504495422091F09785143081880B270470000520D00207411002010B501F053FF10BD10B501F065FF10BD10B500F055FA10BDF1
:4024400010B50749044609780220002907D1204601F0AEFF002802D120460AF08BFC10BDF00E002070B504460120002C12D02368002B0FD0616800290CD0074D062228895A
:40248000208118462968FFF792FF6968606809780170002070BD000074110020FFB585B0002768460E9D07734F481C460078002802D0082009B0F0BD10990F980190009536
:4024C000029105A807C800F001F90028F2D16946264603AB84460873002C19D0002115E08A00B75A082F09D990198078002805D0083FB7521878401C187005E0002914D0B7
:402500000027B75290198770491CC9B2A942E7D360460028CED10F98002809D0109901F089FA002804D00120C4E701208446EFE701F0E6FE2D48002141608160059901609F
:4025400021888180022D07D3A1798171A17AC171A1890181218A418100211EE0481C19E082008B00A75AE65ABE46BE4211D26F463E80B4461E190296B678BE70019676469A
:40258000E6521719029EBB78B3706646A652019EBE70401CA842E3D3491CA942DED3134822460C3000906846037B0799069800F015F90028B8D168460B4C007B60700B4804
:4025C0000C3001F0CDFE0028AED1084907480C3107F070FC0028A7D107F08AFC0028A3D10121217066E700004C0D002068110020F8B5054633480E460078002802D00224D2
:402600002046F8BD002E5BD000242F49002D16D02A89D0070DD02868002808D003881B3BE12B04D24088FB2801D81B2801D2012409E0900707D56868002804D1F7E7002097
:40264000088108604860002CDAD11F482F8907811C481B21801D018041800421017119490020891C0870F80705D016480622801D2968FFF79CFE1449B80703D56A68114857
:40268000127882700F480D46801D0860001F486001F0B4FE0B48801D01F0A2FE28890DF0ADFC28890DF014FE03461033FFF790FE1F21C018890140180249308088809FE75A
:4026C00001249DE74C0D002074110020FFB58446384F1C460020BB883F78054602460646002F11D100290ED0029999420BD36146002908D0002C06D00A99002906D02E4B82
:402700000B99994202D2012004B0F0BD002144E0AB001F19BF78002F3BD0E35A002B38D07B43591889B22B0000F04AF8050410161C253100A7782388BC46FF27233BEB37E1
:40274000BB4222D26346032B1FD322E0A388002B1FD0302B19D31CE02389002B19D0282B13D316E0A289002A13D01346134F233BBB420AD20DE0268A002A0AD033460F4F84
:40278000233BBB4201D2964203D901200EE0002001E000280AD16D1CEDB2099B9D42B7D31C2463435B1802998B42ACD89642AAD8AAE700004C0D002079020000BAFF000012
:4027C00030B47446641E2578641CAB4200D21D46635D5B00E31830BC18470000FFB583B0002469460C801F4606468C80002806D00598002803D004983043800701D00124F4
:4028000066E0002FFBD03449049809888842F6D3FFF7B2FBFFF7A0FB00F012FC002855D100F07AFD002851D12C49084601F036F905042D0C4AD12A48049906608180002113
:40284000C18007810C98007AC00704D0684601F070FD040007D10C98007A800703D501A801F070FD0446BF1DFEB2002C20D13146059800F05DF804001AD10DF037FD0400FA
:4028800016D16A461088928808368518144AF1B29088D288AEB29319984207D3401B801A80B201F0EBFB050007D000E0FF25012400F05EFA002D04D008E0F8B200F01CF9DE
:4028C000F6E700F081FA07490120087000F0CAFB204607B0F0BD0000500D00201D2A000080110020580D002010B503480078012801D101F065FA10BD580D002070B5084B91
:402900000446DA889E8800205518B54206D81D68AA182260DA885118D98070BD032070BD80110020014800897047000080110020F0B587B007460D460020890000900691C2
:402940006846FFF7DBFF844600285DD1304800990160002117E02E4B88001A680629115406D22C4C0419667882185670628805E0C419203CA67A8218567022891B68C018DF
:40298000491C4280C9B2A942E5D300242DE0601CC2B2059025E01E4FA30039689600581840887118039604904E88B04217D938466F46FE80B6464F786E4677710297049FDE
:4029C0004F800168039F5E18767879184E700168764659184E800068029F18184770521CD2B2AA42D7D30598C4B2AC42CFD36046002809D168460699FFF780FF844600286F
:402A000002D1054900980860604607B0F0BD00005C0D002020410100600D00207047000010B5002809D005494A68002A05D0011F08788000105801F0CFFA10BD5C0D0020DF
:402A400010B50446FFF76EFFC0B2801DA0420CD307484068002808D0A100405801F02EFA002801D00470001D10BD002010BD00005C0D0020F8B516460D460446FFF752FF11
:402A8000C0B2801DA04203D20020C0430090F8BDB2B2E9B2684601F037FA0099481C03D0024AA000526811500098F8BD5C0D0020F8B50746FFF736FF801DC6B20A490020BF
:402AC00005460C680DE06178002907D06188B94202D32078FFF7B4FF002804D1241D6D1CEDB2B542EFD3F8BD5C0D002010B5002801D0FFF795FF10BD70B5064609480025FE
:402B000004680BE06178002905D062882078121D0023FFF7AFFF241D6D1CEDB2B542F1D370BD00005C0D0020FFB581B00A9F16000C4620D000F0F2F8054604281BD0002FC4
:402B40000CD03846FFF7B4FF20492A0151184860002810D03A460499FFF729FC1B4928010E504618778101980570200406D47D20C000444304E0FF2005B0F0BD6404640CFF
:402B800000F0BAF80746042807D000F04FFAA0420BD800F04BFA201A03E0204600F0AAFA0020F06035720020E6E700F03FFA009000F0B6FA00980121001B009000F0ECF843
:402BC00002493A0151180098C860E6E78C110020F8B5060116483418217A042903D0E068002802D017E00020F8BD00F01FFA054600F096FA00F0A0F804280CD001010C48DB
:402C00000F18F8680021451900F0C6F80020F860284600F06FFA6068054D002801D0FFF765FF042020720020A8516081E060DAE78C110020FEB500266A4630460123254935
:402C4000050169180D7A042D02D0C96800291BD000211154401CC0B20428F0D300246846005D002830D01B48210108184189476805680291002101604160042241810272C7
:402C8000C160002E02D015E01354E3E700F054F804280ED001010F4808180190C6680021304600F079F801980021C160304600F021FA0126002D07D038460299A847002F99
:402CC00002D03846FFF712FF641CE4B2042CC6D3FEBD00008C1100200EB5002005216A460090118150810348694600680EF063F90EBD0000640D0020074A0020010189184E
:402D00000B7A042B02D0C968002903D0401CC0B20428F3D3704700008C1100200549002002015218127A042A03D0401CC0B20428F6D370478C11002030B50A4B04200A4C59
:402D400000210A011219157A042D06D0D268002A03D09A4201D808461346491CC9B20429EFD330BDFFFF00008C1100207047000030B50020074C05460423020111190B7231
:402D8000A5504D60401C4D81C0B2CD600428F4D330BD00008C11002030B5094C00231A011219157A042D04D0D568002906D02D18D5605B1CDBB2042BF1D330BD2D1AF7E715
:402DC0008C110020002070471CB5002469460C70142001902346054A05480EF0F1F804480068401C00D1FF2420461CBD452E0000640D00203EB5124A0146FF20002301242A
:402E0000126800290DD0012914D0042908D104206946009308814B8110460EF0CCF880B23EBD6846009304814381694610460EF0BDF8F4E768460093048143816946EBE7D6
:402E4000640D002070B545890468416800890300FFF7B6FC08280509091E22282628002005F0EAFE1EE0022908D0C8B22A4621460CF030FA2046FFF739FE13E002202A46FB
:402E800021460CF027FA2946204600F00DF809E000200DF08FFD05E02046FFF7CBFE01E0FFF78CF8002070BD014B0022DB681847680D002070B5448905680089022803D0F6
:402EC000032809D0FF2070BD2246094C0023A46829460120A04708E0FFF7AAFA241DA2B200232946022006F098FE002070BD0000680D0020704700000248002141600180A2
:402F000041807047680D002070B50C46002186B016460391012802D0022859D116E003A9012006F0CFFE01281BD1039D324621462846FFF73CFA009528780190022069462C
:402F400008814E816846FFF7B5FF41E0214D002B686809D0049004A9022006F0B3FE01281DD0022006B070BD002812D0298840182146FFF71CFA28880024801980B228804C
:402F80006988091D884206D12C801348FFF792FF03E00320E6E788421AD96C6018E004986860E278A378110219430B4A698000231060E3565360032313815181A1788170DC
:402FC000E178C1706178417021780170042028800020C7E7680D0020CC1100203EB515460C46022803D004280CD000203EBD0091019002206946088107484A8100680DF0CC
:40300000DAFF07E00CF066F9044B0022DB6829462046984701203EBD640D0020680D0020014AD16090607047680D0020034801688068081A0A21484300097047D8110020D6
:4030400010B5FEF78DFF482204490548FFF7AFF903490120C870002010BD00003C410100DC15002010B5FEF773FF10BD70B5134C2368002B08D0207B1149C20705D0400861
:40308000400020738868A08070BD88680B4AA18880B29268814203D90A4D691A091802E0814202D2411A5118A160A080A0689842EAD30DF09DFF00F013F870BDD811002005
:4030C000C0102E40FFFF000010B508461946FFF7A7FF10BD704710B5FFF780FF10BD000003480021016041608160C16070470000D8110020024610B5FF20002A0CD0FFF7A3
:40310000EFFF064C0321207B0843207310010A21FFF722F82060002010BD0000D811002000B504480A21806848430209FFF7D8FF104600BDD81100200248007B8007C00F42
:4031400070470000D811002010B54B490868002802DA4A4B01221A70022290430860484800694549C00B4031096A0246C907C90F0A4259D0012000F0E5FA3F480E216C3044
:40318000FEF742FE3E4820218430FEF73DFE3C4814219C30FEF738FE3948FF21C131A430FEF732FE3648FF212F31B030FEF72CFE33483449BC30FEF727FE31483249AC3028
:4031C000FEF722FE30492E48491CB430FEF71CFE2B482E49B830FEF717FE29482C49CC30FEF712FE26482B490830FEF70DFE24482949A830FEF708FE214828498830FEF75E
:4032000003FE1F4826498C30FEF7FEFD1C481921C9029030FEF7F8FDFEF7F8FDFEF7B4FEC0B2022812D01FE000290BD0002101420AD0114801216030FEF7E6FD0120FEF7AF
:4032400083FE97E70121F2E7FF2010BD15491648FEF7DAFD14481549001DFEF7D5FD124800210830FEF7D0FD54200449C043891C0870002010BD000000F02E40780D0020FC
:4032800000002E40320300002F3F00003102000010520000EC160000FA12000031D000003AE300009956000080012E40F80F000070B50646581C80B245086D00002408E07A
:4032C000304600F0C1F81055000A1119A41C4870A4B2AC42F4D3D80705D0D0182038D15CC47FD454C17770BD30B50A4C002100195B1E07E0541864782502545C2C430480BB
:40330000891C89B29942F5DB994201D1515C018030BD000000102E4010B5FF2000F012FA0F49FF2048700E481021801D41800121417001700A490020C91C4870FFF704FF7B
:4033400004000AD100F02EF907210648FEF75AFD044807211830FEF755FD204610BD0000780D0020CC112E4070B5002405465B1E0AE0284600F068F8010A161971702D1D55
:403380001055A41CADB2A4B29C42F2DB9C4203D1284600F059F8105570BD000070B500210A4D5B1E0AE0541864782602545C344346193480001D891C80B289B29942F2DB14
:4033C000994202D1515C4019018070BD00102E40F0B50599091FCFB200217E1E0BE0541864782502545C2C43164D45192C80001D891C80B289B2B142F1DBFC0712D01C78F7
:40340000515C24020F4A0C4381180C809C785D78001D210280B2294384182180001D80B2D9780CE059781A7809021143054A84182180001DD9789B78090280B2194380185C
:403440000180F0BD00102E40014940180088704700102E4010B50B490020487000F0A2F8002000F095F9002000F082F907210648FEF7C8FC044807211830FEF7C3FC0020DE
:4034800010BD00007B0D0020CC112E4010B50C48007801280FD100F083FF00F0DDF8002804D10848016A490849000162054802213030FEF7A9FC02490020C91E087010BDC5
:4034C0007B0D002040F02E4010B50B46062812D006DC01280CD0032801D1FFF7BBFF10BD0A28FCD00B28FAD105480078107010BDFFF712FF10BD1146184600F065F910BD4D
:403500007E0D0020F8B5244DAC6A0127A007234E002816DA307806280ED1286A384328621F480069F903084381B21D481030FEF76BFC042000F006F9174802212830FEF7DB
:4035400061FCE00718D000F065FF01280FD1002000F0B2FF062000F0F5F81049FF20C91E48707078002802D1686B384368630A4801212830FEF746FCE0050BD5307804284F
:4035800002D1052000F0DEF80348FF2101312830FEF738FCF8BD000040F02E407B0D002000002E4010B503212348FEF72DFC0120FEF7C6FC20483038406A204C8007617836
:4035C000800F890001431C480C38FEF71DFC6078002808D0401E022181401820FEF7A6FEC000083800E0B82081B21548FEF70CFC1348032109021438FEF706FC104811490A
:40360000B830FEF701FC612189010F48FEF7FCFB0D480321001FFEF7F7FB0C490C48FEF7F3FB0B480B496038FEF7EEFB084801218838FEF7E9FB10BD70F02E407E0D0020E8
:40364000D8102E4090890000041E2E40FF0F000058122E4020900000044800684007400F022801D0002070470120704700010B4000B5FFF7F1FF002805D009480168C90852
:40368000C900016000BD0748016A490849000162054801690122D2039143016100BD000000010B4040F02E4000002E400849087806280BD148780749002803D1486B400890
:4036C00040004863C86A01221043C862704700007B0D002040F02E4001480078704700007B0D002000B50300FFF76AF8080D050D0B070507090D012000BD032000BD0420A3
:4037000000BD022000BDFF2000BD0000074A9168D26889B2064B92B2994204D105498A4201D1012100E000210170704780002E4033D000003FE3000001494870704700000A
:403740007B0D002010B50446FEF706FC072C01D9FF2C01D102480470FEF7FAFB10BD00007B0D00200149487070470000780D002010B5064A012805D01921C9021046FEF7B3
:4037800043FB10BD1D21C902F8E7000090002E4010B50A4A141D012808D009491046FEF733FB08492046FEF72FFB10BD04491046891CFEF729FB0349491DF3E788002E407C
:4037C00031D000003AE3000070B50C460546FEF7DBFBC0B202280E49287804D0FF2810D04C280CD810E0FF2809D10A4AD0680004800F032801D0087807E09069000A553855
:4038000003E00878207070BD4F382070087070BD7A0D002000002E40F0B50122002834D0002932D00424420600D00524792342065B06D21800D0641C034600221EE00C25F6
:4038400016466E43124D00277519AF72104F002ABB51696007D0661EB24209D10D4E86197606760E05E05E06760E8027BE1B00E080269B198919521C2E81D2B2A242DED326
:4038800003480549006B002288611046F0BD00006414002079020000840D002018B50020694608700A48006900280ED0132149014018047E684604704F21C900054800F06D
:4038C00059F8A04201D0012018BD002018BD0000840D0020E8110020074900200C2242435218927A012A05D0401CC0B20628F5D3002070470120704764140020F8B50E00B0
:403900000446154609D0194F19497868A04202D94018A04201D38D4201D90120F8BD31462046FEF735FD00281ED02A4631462046FEF73DFDE8B200210C224A43D219138982
:403940005568EE18A6420BD90126641B1B1B9672834209DA1469C01A044AC0B220329676491CC9B20629E7D30020F8BD6414002079020000034610B50020024604E09C5CB4
:403980002018521CC0B292B28A42F8D310BD000070B500F05FF8084C064A216907480D46FEF705FD05492846FFF736FFFFF776FF207070BD79020000840D0020E8110020C0
:4039C000002070470020054A002902D0012902D002E0906000E0D06000207047840D002070B5084C154608460549E26889182A46FEF7DDFCE0684019E06028B270BD00009F
:403A0000E8110020840D00203EB50A226946FFF7E7FF044606480A2200686946FEF7B8FC002802D00020C0433EBD20463EBD0000880D0020002802D0044A914201D2FF2053
:403A4000704703494A6108610020704779020000840D0020024800218160C16070470000840D002070B5074C15460548A26880182A46FFF743FFA0684019A06028B270BD85
:403A8000E8110020840D002010B503490A220968FFF7E8FF10BD0000880D002010B50F4A002313600E4A13600E4B18600E4801600E49012008600E490860000290600E4940
:403AC0000C4808600D4914300860FF381538506000F0BCF800F0CAF9002010BDB80D0020A00D0020CC0D0020D00D0020BC0D0020AC0D0020AC150020B00D0020C40D002077
:403B0000014610B50020002910D0094B1A689C685118A14209D25868196080188A0704D08A07920F891A091D196010BD002010BDA00D0020F8B50024164E671E321F3D4690
:403B40003168136806E01422624310328A58521C1BD0641C9C42F6D36A1C14D02C461422544322460C3288500C214843FFF7C8FF3168002808510AD03168002010340851E6
:403B80007068401C70602846F8BD2546E4E73846F8BD0000B00D0020F3B50026F64381B000281BDB1E490968884217D80299002914D01B4F142204463F1D54432546396820
:403BC00010354859401C09D0FEF7C6F938682F1F4159C359994203DBFEF7BAF93046FEBD214608310091465801590C20704308180C220299FEF7DBFB0948761C001D00689C
:403C0000C159B14200D100260549009A091D865008684159491C4151FEF79AF90020FEBDAC0D0020002803DB07490968884202D90020C043704704491422091D096850436C
:403C40001030085870470000AC0D0020F0B500200D4A451E0346171F50600FE014260146714314680E1DA3510C461668083433511668083435511468401C635039688842E1
:403C8000ECD30020F0BD0000B00D0020F3B50026F64381B0002841DB2349096888423DD8029900293AD0204F142204463F1D54432546396810354859401C2FD0FEF74CF92C
:403CC0003868415900292BD0211D009146580C21005971430F46C1190C220298FEF767FB11480021001D0068761C00590C34C0190160416081600C48001D00680159B14265
:403D000000D100260849009A091D865008684159491E4151FEF71CF90020FEBD3046FEBDFEF716F9FAE70000AC0D0020FEB504460D4600201E49089E0860471E0090019063
:403D40000290002C11D0486885420ED2002A0CD0002E0AD0642E08D808460C3001681C2068430C18207A002801D03846FEBD0120226020721846FFF7DDFE6060401C13D0A0
:403D80006681A6810A4827610C3067610179A94200D205710021684601810A462846029B00F040F82846FEBD00202072DDE70000B80D002038B50124009400F039F838BD56
:403DC000FEB50027164EFF433D4600240EE01C20316860430818017A002906D04068FFF721FF002801D0254603E0641C3079A042EDDA681C12D01C2130684D434419FEF7A8
:403E0000ABF869466068FFF741FF0546FEF7A0F8002DD9D1216868468847D5E7FEBD0000C40D002038B50024009400F001F838BD1FB500220C49541E0A60002811DB4968A6
:403E400088420ED808491C220C31096850430818406801A9FFF7A0FE401C02D0002004B010BD2046FBE70000B80D0020F0B50021114A4D1E174611710C3F0B46BD6016E0A6
:403E800008461C2460431668041D355114680646235014680836A3551468361DA353044616680A34335318301468491C255078688142E5D30020F0BDC40D002038B50021A9
:403EC0000091002811DB0F49097888420DDA0D4D04010C3529680859002807D0201D0818694600F06FF9002801D0002038BDFEF733F828680F34015D491E0155FEF728F86D
:403F0000009838BDD40D0020F7B582B0002502986E1E06602E48D21C024017462D4A2C4610460C380178106805E02301C358002B0FD0641CE4B28C42F7D3711C28D0340157
:403F4000211D40180191039900F02AF900281FD101E02646F1E71F48016820460C300F521C480399026820460E30115419480399026820460F3011540398784300F0A0F898
:403F8000144900280968085102D00024009011E001251AE00F48016801980818009900F02CF9002801D0012502E00098C0190090641CE4B203988442ECD3002D05D102981F
:403FC000066004480179491C0171284605B0F0BDFCFF0000E00D0020F8B50D4600216A468C461180002839DB23490978884235DA214B04010C3319680A59002A2ED020468E
:404000000C300B5A801C0E5C184670438018954224D3854222D2002006E007465F43BF18AF4206D0401CC0B2B042F6D36046002814D0114E271DC8190C366A46294600F004
:4040400006F900280AD168460088012808D030682946C01900F0D1F8002803D00120F8BD0020F8BDFDF778FF30680F34015D491C0155FDF76DFFF3E7D40D0020F8B50F462C
:40408000002400F031F8002817D10C4900220B460C334A600EE021011D680E466A501D680C36AA53B61C1D680F31AA551D68641C6A54E4B2BC42EED31A71F8BDD40D0020AC
:4040C00000280BD0C01C074A81085068890053884118994203D89368516018187047002070470000D40D0020F8B5064600200F4D009029700C0121466846FEF7FFFB00289A
:404100000CD129460C3100980860301B001F84B221466846FEF7F2FB002801D0FF20F8BD6C800098A8600020F8BD0000D40D0020F8B5002827DB19490978884223DA174C4C
:4041400005010C342168485900281CD028460C30085A009028460E300E5C401C0E5420682F1DC01900F064F800280CD12068002445590EE0094829460C300068C01900F0E8
:404180003CF8002801D00120F8BD00982D18641CE4B2B442EED30020F8BD0000D40D002030B50D4604000BD0A800FFF789FF6060002805D000202570C0436080002030BDDD
:4041C000012030BD70B50D46040005D0002D03D00220205E002801DA012070BDFDF7BCFE0221615E60688900405828606088401E6080FDF7ADFE002070BD70B50D460400E0
:4042000007D0002D05D002212078615E401E814201DB012070BDFDF79FFE6088401C00B26080616880000D50FDF792FE002070BD10B5040009D0227800216068FEF7C0F830
:404240000020C0436080002010BD012010BDF0B500231D46002802D00224045F0AE00120F0BD46689F00F6598E4201D1012503E05B1CDBB29C42F4DA15700020F0BD0000B1
:404280000148007870470000E80D00207CB505460024FEF7CDF8A8796946087000A8062229460130FEF783F80021684604F08AFF0C2806D0072806D01F2806D0122806D067
:4042C00006E0022404E0042402E0272400E0012420467CBD10B502280BD0032802D0042809D102E000F076F905E000F021FAFF2801D100F031FAFFF7EFF9FFF7F3F910BD36
:4043000010B500F059FAFFF7E7F9FFF7EBF910BD70B504460025FEF78BF8002C06D0A079012803D8214602F0D5FD00E00125284670BD01460120002902D050200880002086
:404340007047000001460120002905D003485422007850430880002070470000EA0D002010B502460D49FE204870032410460DF045F9002810D10DF0E9F800280CD105F00C
:40438000FDFC002808D100F027FC002804D105F0BFF9002800D10024204610BDE80D002002480021018280210180704700102E4070B50025044600280ED0A07901280BD8DD
:4043C000FEF736F8A0790028204602D003F05EF903E003F033F900E00125284670BD0000014610B50120002904D006220248FDF7DEFF002010BD0000F40D00200146012051
:40440000002903D0087802490870002070470000EA0D00200148007A70470000E416002038B504460120002C20D0617801291DD800290BD0FF25E535FDF7FAFF0C4828188C
:404440000088C0B22070072803D00EE0FF25CD35F2E70020694608706846FFF757F969460878012801D108202070002038BD000000102E40014A002192681047E80D002041
:4044800008B500226B461A7026280CD0094A342852680BD0352805D1900703D50021352005F048FD08BD19462620F9E7D007F9D03420F5E7E80D0020014908727047000078
:4044C000E4160020F8B504460120002C26D06178012902D92278092A20D8002905D0FF25E5352078092803D004E0FF25CD35F8E708202070FDF79CFF2078114F114E082836
:404500000DD00020FFF744F970780128207810D00D4969180880FE2070700020F8BD0120FFF736F90720B8810549203188800120F2E7B8810248217820308180EBE700000A
:40454000C0112E40E80D002000102E4070B50E46050001D0002400E00C4C002C11D0E28A500609D5D107C90F022003F02DF9E08A40218843E08204E0D107C90F012003F086
:4045800023F93146284602F001FE70BD44160020F8B50546002004460D4E009013E022466946284601F002F90098002801D00DF007F8A878214602F0CBFBA878214602F06C
:4045C000B9FB641CE4B2308AA042E8D8F8BD000010170020F8B54E4CFFF77EF8012847D14C480078002843D002F058FD00283FD004F08AFA00283BD0474E7078C00703D01E
:4046000000F01CFD012833D0307E00287DD17078002500285BD0000706D540488089070B00F02EF9384370D13B484178684604F0C1F821793A4CA2788918C9B2814262D87F
:4046400002F02CFD002860D0344860300789324E203602F06DFB6846008802F097FB02F033FC30490988884203D10120FFF76AF84BE02D49012008702748807B00281DD046
:40468000002F1BD04036F07E002817D123486030008821494000C031498981420AD26078002807D103F0BEF82049088A03221202104308822078002800D0257002F09CFB1D
:4046C0000120FFF739F800F025FC174C15E002F0E5FC002819D0102402F0F6FB214602F0DFFA02F053FB104C0120207002F084FB0020FFF721F800F00DFC20780128B4D1B0
:40470000FEF7B6FF25700020F8BDFF20F8BD00001C160020780D002024160020A0102E400E0E0020200E0020FA0D0020E0112E4010B50848FF244078002809D102F0AEFC84
:40474000012805D1FEF7A2FE0720FEF7FBFF0024204610BD2416002038B5FEF7BDFF012801D0002038BD02F099FC00280AD0114C6078C00703D000F061FC012802D0207EF3
:40478000002801D0FF2038BD617800290FD0684604F010F8022806D96846008802F0F6FA012002F033FB0320FEF7CCFFD9E70020F7E700002416002038B51E4CFEF78CFF2D
:4047C000042813D0052811D0062812D003282AD007280AD100206946087002460120FEF773FEFEF779FF0128FBD138BD00F0B2FB38BD02F023FB00F0ADFB02F09FFB8007A3
:40480000800F0228F4D10C4841880029F0D05B21095D0029ECD101210170A07D0140022002F0D2FF38BD02F00DFB0120FEF78AFF38BD0000441600200E0E0020F8B5064624
:40484000002403F02FF80546304603F045F803460A480021068A0DE001228A401046174628401F40002803D0002F01D1224394B2491CC9B28E42EFD82046F8BD10170020E9
:4048800070B500252C460A4E03E0002C01D0002000E030460079002803D02046FFF7CEFF0543641C2406240EEFD0284670BD0000441600201CB50020694648706846FFF7FD
:4048C000AFFD01AA69460A20FEF7FEFD6946042008561CBD70B50D4601F048FB04000BD02079002808D0FDF7A3FDE178A0782A4602F0D2FC002070BD022070BD01480078D8
:40490000704700001C1600204030C07E002800D00120704700B500F001F800BD902148430749084A40186030417F491CC9B24177D289914201D300214177C8B2704700006B
:40494000241600201017002013B501F00FFB04000BD001F0ACFE002807D0214601AA0A310620FEF7B1FD00201CBD02201CBD000010B50C4601F0FAFA00280AD001F097FECC
:40498000002806D0224604490A20FEF79DFD002010BD022010BD000005160020F3B581B0074601460026029802F074FF0446002F01D0002500E0154D002D21D0284601F0B4
:4049C0000BFB032C04D13946029802F0BFFF06463846029902F0AEF9032C06D0002C10D00121384601F0FEFB03E03146384603F0ABF9284602F08CF80221284602F0A2F8DB
:404A0000FEBD3846029902F095F9FEBD4416002010B5044600F066FA002804D103F05EFE002801D00C2010BD2078611C02F036FDFF2801D01F2010BD02F07CFDFF280AD0A6
:404A40002178621C02F0FEF8044821780068026B601C904710BD072010BD0000340E002010B503F03BFE002801D00C2010BD02F0F7FC03480068C06A8047002010BD0000AE
:404A8000340E002070B50D46044610210CF0D8FC1021601806460CF0D3FC334610221946204603F049FE102130460CF0C9FC02202870204604F062FD70BD0000F8B5044668
:404AC0004078217802028006870FE0781143A67809050002090D0643084601F047FA00210546F2B2002812D0002C10D0022F0ED0032F0CD0002A0AD00279092A07D0002A96
:404B000005D0134A5A23527E1B5C9A4207D82889002104F068FC20460CF052FDFF21002914D10C48224600682946436930469847C0B2FF280AD128464030817EF2B2491CCD
:404B40008176FF232146284600F0E3F8F8BD0000DC150020500E00200020704710B5044603F0BCFD002801D00C2010BD2078611C02F094FCFF2808D002F0CCFB0448217880
:404B80000068426B601C904710BD1F2010BD0000340E002010B500F06BF904F0B9FD002010BD10B5044600786178E2780843A17811430843217908436179084305D003F013
:404BC0007FFD002803D00C2010BD122010BD204602F05CFD002010BD10B5FDF7D5F902F083FE044803F0DEFE02F09EFB012000F003F810BDEC150020F1B586B003A80090F7
:404C000005A8019028489F22817A114081726846FDF728FC002845D169460989C90705D0224806990068C2686846904769460989890706D5002835D11D480068816A06988C
:404C4000884700282ED11B4E0025757075737571F575357675767575B570F570B5713746F5730120D03738731F20F880FF2130467972A0300176457600F0F0FA002420460D
:404C8000069901F0BFFC002803D1641C2406240EF5D0FD720749BD72B573C0310D704D704D600D7207B0F0BDDC150020500E0020340E00202416002070B505460E460846DE
:404CC00002F0F0FD0446304602F006FE0121A9400A46224001400A4301D0012070BD002070BD10B50446084602F0F6FD0121A140014201D0012010BD002010BD10B5FEF77A
:404D0000EBFC032804D102F09DF80120FEF71AFD10BDFEB51C4616460F46054601F0F8FEA878FFF7F7FD02460190334639460094284600F00DF8002808D1A8780199FFF790
:404D400005FCFF2C02D138460CF03AFCFEBD0000FFB585B005460E980C46FF2810D02B49C00009680A5840180179C0795278814201D9012601E09006860F6846038108E0D0
:404D80006078A1788006860FE0780002014368460181284601F096FC070007D021462846079A00F097FC384609B0F0BD304600F045FD04AE0346039002AA29460096204620
:404DC00000F0D1FB3C20405D002818D0284601F079FC012813D0684600890096C0B20190A878231DFF22079902F084F968460089039BC2B2A878079902F0C4FCD3E768468B
:404E000000890021C0B20091E9E700004C0E0020F8B5002600253046FFF710FD07001DD090201149704340186030447F12E0601CFDF792F9CCB23846E040C007C00F07D038
:404E40002146304601F06CFF21463046FFF7A6FD6D1CEDB20548018AA942E8D8761C3606360ED7D0F8BD0000241600201017002010B502F059FA0020FFF7BEFE0CF036FCBF
:404E8000002010BDF8B5002400F0D2F80123012800D10124104F00203E4620360425082203E0002801D0002100E031460979002907D001290BD002290BD01146814021432E
:404EC000CCB2401C0006000EEBD07C70F8BD1C43F7E72C43F5E700002416002010B5FFF7D1FF10BD10B5044604F064FD002802D1601C00F001F810BD1CB5002400940622EC
:404F000069460194FDF744FA002800D1122420461CBD000070B50E4CFCF713FE0546FEF7DBFB062802D02078012803D02846FCF70CFE70BDFDF778F82846FCF706FEFEF70A
:404F4000CBFB0628F5D020780028E5D170BD0000FA0D002010B5FCF7F4FD0446FEF7BCFB012809D0FEF7B8FB022805D0FDF75CF82046FCF7EAFDEEE72046FCF7E6FD10BD00
:404F800010B50B4681791943817103D08078114602F0C6FB10BD10B582798A43827102D1807802F0D1FB10BD30B50C4C0220A28A0B4B9978002901D0022906D11D785B78C5
:404FC000EB18282B01D9032002E0032900D101205105490DC0020143A18230BDC0112E40040E002000B500F029F8002807D0012805D0032801D0042801D0002000BD012071
:4050000000BD014600B50020C90701D000F010F800BD014600B50020C90701D000F008F800BD00000148006870470000FC0D002001480088000A704720102E400448008B3F
:40504000410501D5042070474007800F7047000000102E4010B501F037FF044601F07EFF0146204601F058FF10BD00000148406870470000FC0D002038B50446000610D5D5
:40508000FFF7DCFF01280CD1684601F0EBFE6846007800F023FB012001F0A2FD0220FFF71DFF600708D507480179012904D1002101712620FFF7E4F903480068016920463D
:4050C000884738BD080E0020340E002070B505460C49007800240870FFF7AAFF012803D1FFF7B8FF022803D3284602F03BFA07E0284600F0EBF8040002D1034801210170C0
:40510000204670BD040E0020E416002070B50446FFF78EFF002801D00C2070BDA27B01211F48002A827801D00A4301E05208520082706279012A14D0C17849084900C170F7
:40514000184D2868016820468847207901280CD06188208803F074F82080207904280FD015E0C2780A43C270EAE72868C168E01D8847E01D02F076FA0B48808C208006E082
:405180002868C168E01D8847E01D02F06BFA074920798870204602F0F3F9002070BD000024160020340E0020DC150020040E002008B50178FFF73CFF814201D10C2008BDB8
:4051C000002914D0072069460870FFF70BFF012807D10121684600F0D9F8012801D0092008BDFFF7E1FE02F0FFF9012011E0FFF7F9FE012806D1684601F034FE6846007825
:4052000000F0A0FA02F0E6F9FFF712FF0028FBD10220FFF763FE002008BD000070B505460C49007800244870FFF702FF012803D1FFF710FF022803D3284602F051FA07E016
:40524000284600F05DF8040002D1034801214170204670BD040E0020E416002038B568460CF044F9002801D01F2038BD01210098C902018041800025057145718571072170
:405280004173857302F07CF9009C202200212046FDF796F825702A460021601CFDF790F8204602F05FF9204602F01AFA00980CF087F9062200210448FDF782F802480C3815
:4052C0008560002038BD0000080E0020F8B504460025684600950CF009F9002801D007250AE0064E009830602278611C401CFDF75EF83168207808702846F8BDFC0D0020E4
:40530000F8B504460025684600950CF0EFF8002801D007250AE0064E009870602278611C401CFDF744F87168207808702846F8BDFC0D00200346084800B5834209D8184636
:4053400000F014FE002804D00089984201D1012000BD002000BD0000FF0E0000074A9179491C8906890E917138220A4092014907090E114308430249084070472416002069
:40538000FF0E0000C006C00E70470000F8B507460E4600240D4803E0002C01D0002500E005462979002905D0641C2406240EF3D00020F8BD0021204601F024F92E712046F0
:4053C000FFF7CCFF28813C700120F8BD4416002010B503F0E5F90222002100F003F801F04FFF10BD10B5094B40074907000F090F185A595A40185043C0086421FCF7ACFEA4
:40540000002800D1012080B210BD000084410100F7B53D20405C88B015460C46002802D02878042802D200200BB0F0BD6946087200262046FFF768FA012800D0012620464E
:4054400003A938300191009023460327A17E34333246206A03F0C0FA02A8089900900B46019120463A4603A9243003F045F902466846007A2870204601F0B0F81046D3E742
:40548000FFB587B00C4605461078694608723D20005D1746002826D000262046FFF734FA012800D00126204603A93830019100902346A17E34333246206A03F08DFA02A8FD
:4054C0000090291D019120462B1D03A924300A9A03F012F902006846007A388002D1204601F07CF810460BB0F0BDF0B505463C20405C89B016460C4600280CD0307869468C
:405500000873002806D000272046FFF7FDF9012803D003E01F2009B0F0BD012703200890204604A93830019100902346E17E34333A46E06903F050FA6846007B03A928182B
:405540000290009120462B46019504A92430089A03F006F902466846007B3070204601F047F81046D7E7FFB505463C20405C89B016460C46002810D0084601F0A3F8012862
:405580000BD0308869468883002809D000272046FFF7BAF9012805D005E000200DB0F0BD0220FBE70127204603A93830019100902346E17E34333A46E06903F00DFA291DFA
:4055C0002B1D07A8129A6D4607C5204603A924300C9A03F0C5F802466846808B3080204601F006F81046D9E770B50D460446FFF78BF901280AD0E87AA97A00020143A0788F
:4056000001F02AFD012808D0002070BD00222421204602F067FD242070BD28214C200155204600F0B1FB282070BD0000002801D0002000E003484030C07F012800D00020E2
:4056400070470000441600200146002049070ED50021084B03E0002901D0002200E01A461279022A04D0491C0906090EF3D0704701207047441600200146002049070ED530
:405680000021084B03E0002901D0002200E01A461279022A04D0491C0906090EF3D07047012070474416002010B5044680346068002803D00BF098FF0020606010BD403020
:4056C000417070474030817070474030017070470171704792001018C166704770B53C2501F096F9040004D020460021433001F053FCFF222946204600F0E2FB002C02D0F8
:40570000A07801F007F970BD10B5002801D0002000E00348002802D0008903F0ABFE10BD4416002010B5002801D0002000E00448002804D00179072901D100F047F810BD46
:405740004416002010B501F063F9002802D0807801F0E0F810BD00207047000070B50546008A00281ED01049F122897A1140C90618D5294640314A8A098A521C4A4392B22C
:40578000D10800D10121540801E0621A94B2A042FBD9FEF775FD012804D1298AA878224601F030FD70BD0000DC15002010B50023054C0B60248A944204D992001018C26E7D
:4057C0000A60C36610BD00001017002038B5044600200090A079002814D14020015D052901D00E290ED168460BF090FE002809D12046009902F054FC03481021C28A20467A
:40580000FFF7BEFB38BD0000DC15002010B50B4604460146184602F0CDF8002802D020460BF0D8FE10BD13B5044601AA11460620FDF74AFE6846818861811CBD002800D118
:405840000220704770470000F8B504462346401D543300909A1EA078911E01F01FFB25464035A88A298A8000FCF776FC401E81B2688A884203D96982A07801F0DFFF698AA2
:405880008C20015120460021433001F085FB27480088E88102F084FFE989891C8AB26179FFF7A0FD01F0ECFC02F07AFF2A8A6179FFF798FD074601F0D7FC688A002806D08C
:4058C0001B49088A032212021043088202E0002001F0A8FF1648803801886E8A002E0CD0304648431349FCF721FD0004000C01D0401C80B21049488002E00F480021418048
:40590000288A704381B2A07801F0F8FEFF2228374932B9B21346204602F096FCE98AA07801F06CFEA07801F025FAF8BD80102E40E0112E40710200000E0E00207FB50446DA
:405940008034616805460E46183108226846FCF72EFD31462031082202A8FCF728FD102168460BF06DFD6068102108300BF068FD60682B46083024331022694602F0DCFECE
:405980007FBD10B504460821FFF705FB10212046FFF701FB207905281FD006281DD008281AD12189002003F0DDFC072020712046FEF7AAFF014620464030012913D00E215E
:4059C000017000210176204600F0B6FF2046FFF76BFE2046FFF7C2FE10BD20890122002103F0A4FCE1E70521EAE70000FFB581B01F4604460821FFF7CEFA10212046FFF79E
:405A0000CAFA2079082803D0092804D0042203E00422012501E009220025204600F03EFE264600204036307022712046FFF73CFE0398002D02D0012808D00BE001280AD194
:405A400020890022029903F071FC04E02189029803F088FC012700203076012F04D0204600F06AFF05B0F0BD02983073204602F065FB054605480121C28A2046FFF780FADD
:405A8000002DEFD109202071ECE70000DC15002070B50C460546FEF737FF012809D108212846FFF778FA0023012221462846FFF79DFF70BD10B5044600F0F0FD2046FFF74A
:405AC000F3FD00214034217010BD70B505461A24FEF71AFF012809D108212846FFF75BFA0023012221462846FFF780FF70BD0000F8B50446002000900E4668460BF006FDBE
:405B0000002801D00D20F8BD8420005908212030009D00F026FA20460421383000F021FA002E02D1204600F0F5FD2946204602F046FA0E480821C28A2046FFF721FA204671
:405B400000F06BFF25464035002808D0204600F023F8002801D0092028700020F8BD08202870204600F0D4FFF7E70000DC150020014610B540310A460978082906D009298C
:405B800007D00A2901D100F091F810BD0B20107010BD00F001F810BD70B50446007925464035052805D0062803D008280FD00C2070BD03220621204602F094FA0D480821B2
:405BC000C28A2046FFF7DCF91120287010E006202873204602F0B2FA0646AA8A0A20424301212046FFF7CCF9002E01D109202071002070BDDC15002038B504460020009039
:405C000068460BF083FC002801D00D2038BD2046009D00F0BDF908202071204600F07AFD2946204602F0FEF900213D2001550F2040210855204600F06BFF002038BD00B5E9
:405C4000024600F02BFD10214032117000BD10B50446FEF759FE012809D04020005D112805D100231A4606212046FFF7BFFE10BD10B5FFF786FE10BD38B504460021684618
:405C800000910BF043FC00280CD12046009902F04AFA05480821C28A2046FFF771F90D204034207038BD0000DC15002038B504460021684600910BF029FC002801D00D2043
:405CC00038BD2046009902F023FA05480821C28A2046FFF755F90C2040342070002038BDDC15002000787047F8B5002569460D70002801D0002400E01F4C002C18D02046D0
:405D000000F0D5FC002813D0207903280BD005280CD026464036B18AA07801F0F9FCB078012806D01DE0042020711DE006202071F8BD0021204601F05AFE274680373868FE
:405D4000002802D00BF050FC3D600020B0702079072802D12046FFF701FD0221204600F0F1FE20790428E3D1207A694608703420FEF786FBF8BD00004416002010B54C2242
:405D8000115400F04CF810BD10B50446FF21FFF702F909202071A07801F0E0FC10BD000038B5FF216A461180002801D0002400E0084C002C0DD011460620FDF785FB6846AA
:405DC00001882046FFF72FFD03480068C1692046884738BD44160020500E002010B504468079002809D022214C200155FF212046FFF7D1F8204600F012F810BD10B50379D2
:405E000002464032002B03D01173092B02D003E0002100E02221117300F001F810BDFEB504460089002700902781207926464036002817D0012815D002280AD112E002AA9F
:405E400001A9204601F0A4FD002807D101980BF0C1FB204601F0C4FD0028F0D02046FEF797FBB776254680352868002802D00BF0BBFB2F606868002802D00BF0B5FB6F60E8
:405E8000317B002919D0009800F064F8A078002100F092FF2046FFF79BFAA07801F0C6F8A07800F037FDFF212046FFF774F80B20FFF714F800F068FCFEBD1F213173E2E7C1
:405EC000F8B517460E46054602F066FC04003CD020460C3001F050F82046062200211830FCF76EFA2046062200211230FCF768FA1648224600683946436A2846984707462E
:405F000026702846FEF700FD012148406070002D10D02889608028464030C1782171002E0FD169796171018AE180418A2181808A608106E00648008BC005C00F20710020A0
:405F400060803946204603F090F9F8BD340E002000102E400A4610B50146002003F0A2FA10BD10B50BF048F810BD000000B50146FFF708FA002801D0002000E00348002846
:405F800002D002898A4200D0002000BD4416002038B5044680346068002806D168460BF0C5FA002801D100986060606838BD000010B5014600F086FB0128887802D0FEF7FB
:405FC000ADFC10BD90214843024940186030007F10BD00002416002070B5054604464035A87F012811D1A1789020084A484380186030067F3046FEF75FFE002805D102207A
:40600000A877A078314601F0CBF870BD2416002010B50C4CA07A002813D0FEF7F9FE0A48027F417F408B00F0B7FB012809D10020A07200F02DFF05498989090B01D000F0C3
:406040003BFA10BDF416002024160020A0102E4070477047490510B5490F0B00FCF7B0FB060704080C0C0F073E21FFF787FE10BD0821FFF7C3FE10BDFFF7D1FE10BDFFF7D7
:40608000ADFE10BDF8B507460025002D01D0002600E0204E00F0A6FE3046403044890021418100F0C3FE304600F001FB01282BD1A00702D52846FFF717FEE00602D5284653
:4060C000FFF76EFEA00601D5FEF7A2FE600601D500F014FB200602D5284600F01DF8600702D5284600F02CFA380402D52846FFF719FB780402D52846FFF706FBE00703D0C3
:4061000021463046FFF7A6FF6D1C2D062D0EBCD0F8BD000044160020F8B5002801D0002400E0284C002C4BD025464035A878012846D1FF278820493700593E46002805D068
:406140002149897A890601D5878AC68A2046FEF7DBFB012834D002F023FB2A8A6179FFF741F9009001F080F800983346283081B23A46204602F068F8E98AA07801F03EFA3F
:4061800012480188688A124E002810D048431149FCF7CCF80004000C01D0401C80B27080A07DC107C90F002001F00EFB01E000207080288A698A484381B2A07801F09EFADB
:4061C000F8BD000044160020DC15002060112E400E0E0020710200000149096809680847500E002070B50D460026194A0146002801D0002401E014462034002C26D020465C
:4062000000F060FA01280AD19020484380186030007FFEF751FD002801D101F00FFF0D48006881692046884700280CD020464030817EA94202D3491B817600E0867620899D
:40624000294603F0D0F8204600F062FC70BD000024160020500E002070B503460088FFF785FE040013D000F022FA00280FD02079092819D02546997840352973204601F03B
:406280005DFF0646A878012803D0AA8A02E0022070BDEA880A20424301212046FEF770FE002E01D109202071002070BD0EB5002217216B460292198100905A810120029B7D
:4062C00000990BF031FA0EBDF8B518480024807A002822D1164E0025B089000B22E0204600F074FE1249A039401807882A462146384600F051FA012810D00E480122478340
:4063000005770A4944778A72002D01D0002000E02030002801D000F0FBFBF8BDB089000B641CE4B20028DAD1F8BD0000F4160020A0102E402416002010B50088FFF716FE1A
:40634000002809D0014640310C460978082905D00B2903D00C2010BD022010BDFFF71CFC002801D009202070002010BD70B503460088FFF7FBFD040008D0254640352878AF
:40638000082805D00B2803D00C2070BD022070BD8420005910220830991CFCF708F82046FFF7CCFA2878082804D02046FFF77EFC002801D00A202870204600F0A9FB0020AA
:4063C00070BD000010B50C46002121700088FFF7CDFD03000BD000F06AF9002807D00948F121807A0840C00603D4112010BD022010BD022020701A8A1889002103F06EF88F
:40640000002010BDDC150020F8B50F46002100910088FFF7ABFD040012D000F048F900280ED0E079410641D4617E02264A07002A08DB8907402500291ADA2843E07135E06A
:406440000220F8BD02F0A8F90021017021894180A1898180217E4170E189C1803E7005460178134802F014FD284602F0DBFF1DE0204600F02DF9012806D068460BF046F826
:40648000002803D00720F8BD2A20F8BDE07900992843E071204601F07BFE607E0421304360760448C28A2046FEF76AFD0020F8BD1D040000DC1500203EB500220F236C46E2
:4064C0000292238100910190628169460EC900200BF02AF93EBD0000F8B50F46054600F097FA040025D003202071254600264035EE76E6702046FFF7A7F901F06BF80920EC
:40650000FEF7ECFCA07800F07FFD0121204600F019FB2E706E70AE703A4600212046FFF7CFFC0649887B401C8873A078FFF754FEF8BD284601F012F9F8BD000024160020D5
:4065400010B5002801D0002000E0094800280DD0014640310A464978022901D100215170807DC107C90F002001F02EF910BD00004416002070B503460D460088FFF7F6FC12
:4065800004000BD000F093F8002807D01248F121807A0840C00603D4112070BD022070BD20464030418A008A491C41430804C10C5888884201D2122070BD20822079072857
:4065C00002D12046FFF7CAF8022028702089002102F0ACFF002070BDDC150020016A491C016204D1817E491C4906490E81767047C169491CC16104D1C17E491C4906490E9B
:40660000C1767047F0B5074687B003A8009005A800260D460190002F01D0002400E01B4C002C05D06846FBF71DFF002803D00BE0022007B0F0BD68460089C00704D1902238
:4066400000212046FBF7BCFE114829460068826820469047050016D1A77066762746267140373E70204600F019F8204601F0B4F9084820820848BE77807AF121084000D082
:4066800001202075E682E8B2D3E7000044160020500E0020B80B0000DC150020002101628176C161C17620300177417770470079002805D0012803D0022801D0012070474C
:4066C000002070474030807F002800D00120704740300078002807D0012805D0052803D00E2801D0012070470020704710B5807801F0F2F8002800D0012010BD10B500F0B6
:40670000C7FB03498989090B01D0FFF7D5FE10BDA0102E4070B5054604464035A87F002825D1FF206075A0789021154A484380186030417F9023491CC9B24177A07858439F
:40674000104B8018DB896030994201D300214177A0789021484380186030467F0677A1783046FEF7A9FA002802D00120A87770BD0220A877A078314600F012FD70BD000062
:4067800024160020101700200020401C0006000EFBD0002070470000F0B515468207920F85B0000A02926A469080002D01D0002400E0564C002C28D0084600F007FC0746F3
:4067C0006846808800280BD00298012843D0022841D003280BD03D20005D012879D08FE04B48381801882046FFF71DF888E00020029002A80AF06AFE002807D03D20005D72
:40680000012802D12046FFF7E9FE7CE06846029E8388324600213846FCF74AFD3C48381801882046FEF7FFFF284600F0B5FA01AA21463046FEF7ECFD002806D030460AF07C
:40684000B5FE3D204C21085531E0F5773146204601F02AFA57E0002000902089039068460AF024FE002802D0002005B0F0BD6846009E8388321D00213846FCF719FD2448AC
:40688000381801882046FEF7CEFF284600F084FA2046FFF70CFF002805D025464035287E002810D107E030460AF076FE2BE02046FFF76AFA27E001AA21463046029BFEF751
:4068C000DFFD002806D030460AF066FE3D202873EDE712E00298FEF7B5FF0399317003990001090A0143717068468088B070000AF0703046FFF7DAFC05E02046FFF76EFEA8
:40690000284600F049FA0120AFE700004416002000102E4010B5074A917B002901D0491E91730021FFF76EFE002801D0002010BD012010BD24160020F8B507460646403712
:40694000B87F00282DD0B078902100904843234945186035287F0099FEF7C3F901281ED0287F401CC4B21E48C089A04200D800240020B877FF276F772F77A87702460146AC
:40698000009800F079FD717DFF2903D0304600F0E4FF777501F052FB0025114F19E00320B877F8BD00200090224669463046FEF7FDFE0099002904D0FF231A463046FEF748
:4069C000A8F9641CF889E4B2A04200D800246D1CEDB2F889A842E5D8F8BD0000241600201017002010B502460021084B03E0002901D0002000E018460479944204D0491C93
:406A00000906090EF3D0002010BD00004416002000B50120FFF7E6FF00BD10B5044601F0BBFE2189018080346168416061682831816002F0B1FC10BDF7B50646087982B07C
:406A40000C46092807D0A078F0770846FFF73AFE012806D010E030460AF0BCFD022005B0F0BDA1789020294A484380186030007FFEF722F9012810D0A078FEF7D7FD012894
:406A80000BD037780121304601F084FA25462035062F38D00B2F0FD107E06846027C21463046FEF7B3FE0D20D9E72046FDF72CFF012801D1002028772046FFF779FA054652
:406AC00004AA21463046FEF710FD01205F2108556946097C002001910090A07833463A46294600F007FB69460A7CA0780323294600F048FEA0782946FDF728FD30460AF0FB
:406B000069FD0020ABE70120D5E700002416002010B502464032937F0021002B03D1927E002A00D00121064A927A002A00D000210279092A00D10121807800F065FE10BDF9
:406B4000F416002070B50C460546FDF7DDFE00280BD1012C06D92879092806D02846FFF7C5FD0446002C02D004E0012402E0A87DC007FAD1A87DC107C90F204600F024FE55
:406B800070BD0000012807D0082804D104480282034808300180704701488038FAE70000A0102E40014908817047000000102E4010B50446FF20F130012C01D1FF20D5309E
:406BC000002200F053FE044A108A044980B2A0430880108210BD000000102E40120E0020034B198A034A89B2814311801982704700102E40120E002010B50446012802D05B
:406C0000082C07D102E0FF20D53001E0FF20F13000F024FE0348018A034A89B221431180018210BD00102E40120E0020034B198A034A89B2014311801982704700102E4090
:406C4000120E0020F8B505460120A84086B214460F46012231467C2000F008FE3A463146782000F003FE6078267800020643E078A2780002024360792379000203430C20DD
:406C800045430D2080010549281844182680001D44182280001D40180380F8BD00102E40401880B270470000CB065B0E0343480901021943D00108430121C90208430149B9
:406CC0000881704780142E404278037812021343084A1382C37880781B021843908248780B78000203431383C8788978000201439183704700142E40024A1080000C908022
:406D00001181704700142E40044A002180180288491C89B21029FAD37047000000102E40024A10820148803081817047A0102E407047000010B5054A1082084600F0BAFD1C
:406D4000024A0021A03A8018018010BDA0102E4010B50B46044600F005F819462046FFF7DFFF10BD024A10820148803001817047A0102E4010B504490882FF2000222021C9
:406D80001D3000F073FD10BDA0102E400149088070470000C0102E40000202494D3008807047000000102E400249888A0422904388827047C0112E4010B5084B074C020228
:406DC000A03B0029208202D075321A8010BD04490020088088807632F7E70000A0102E40201A2E4000B5034908884880FFF7F8FE00BD0000120E002010B50120FDF75CFB51
:406E000001495020088010BD00102E4006490E220028888806D01043888003495120C039088070479043F7E7C0102E4000B502484088FFF7FBFE00BD120E002010B5FCF78E
:406E400035FC10BD014952200880704700102E40884201D8081A03E00022D243101A401880B2704700210170704700000748808806492039098B884201D8081A03E00022AB
:406E8000D243101A401880B27047000020112E400148008AC0B27047A0102E4070B5084C049D2082074804890548603006880E8001891180808818806007400F287070BDD2
:406EC000A0102E40E0112E400148008970470000C0102E4000280FD00D4A108B0870000A4870908B8870000AC8700948203000880871000A48717047064A10880870000A40
:406F0000487090888870000AC8701089F0E7000040102E40C0112E4000B5024A00F004F800BD0000FF7F000000B51346FFF790FF984201D8022800D2002000BD0148008AC0
:406F400070470000001A2E40024908820248008970470000A0102E40001A2E40014880887047000020102E40024908820148803000887047A0102E40064B1A8999891B8A41
:406F80000270120A42708170090AC1700371190A4171704760102E40012904D00549098BC90B017070470349403109898907C90FF7E7000000102E400249088202480089E7
:406FC00070470000A0102E40201A2E40014840897047000010170020024908820248808970470000A0102E40001A2E40044A10820448028980894843101880B27047000023
:40700000A0102E40101700209021074B414300B5C918FF2260314A770A7700228A77114600F02AFA00BD00002416002090225043074A10B58018FF21603041770177002141
:4070400081770448418EFF201D3000F007FC10BD24160020DC15002000B5044A1082034880308088022200F003F800BDA0102E4010B50023884201D8081A03E00024E44309
:40708000201A4018044980B2884201D8824200D90123184610BD0000FF7F0000024880880006C00F70470000C0102E4002488089C007C00F70470000201A2E4070B554785D
:4070C000157824022543D47888232602947834435679127936023243002900D09823044908820348A038181805808480028170BDA0102E40FFB581B014460D4607460A9E10
:407100000B9BFFF773FF002E0AD0009333460021049AFCF75DF905484019C45505B0F0BD0021049AFCF73AF9F5E70000160E002070B502460448054D808808242C800B46C3
:407140000021FCF72BF970BD10170020A0142E4010B5212402466401044953200880102300212046FCF71AF910BD000000102E40417802780902044B0A431A83C17880788F
:40718000090208439883704760142E40034A1082802001430148803001817047A0102E40054A1082044A6032908B0009000108439115084390837047A0102E4030B50021A2
:4071C0000F4B0A46012809D0032802D005280AD107E04021198102210A2204E004210C2201E004210D221882054C20342088C0B205460D42FAD022800021198230BD000039
:4072000080142E4010B5044607480482074801808280032189030820FFF7EEFC200202497530A039088010BDA0102E40201A2E40054A1082044A60321183000202494B30BB
